:020000040800F2
:10000000B81000209D0100089D420008752B0008D3
:1000100099420008FD070008114E0008000000008A
:10002000000000000000000000000000E14800089F
:10003000250A000800000000E546000839490008CC
:10004000B7010008B7010008B7010008B7010008B0
:10005000B7010008B7010008B7010008B7010008A0
:10006000B7010008B7010008B7010008B701000890
:10007000B7010008B7010008B7010008B701000880
:10008000B7010008B7010008B7010008B701000870
:10009000B7010008B7010008B7010008B701000860
:1000A000B7010008B7010008B7010008B701000850
:1000B000B7010008114A0008B7010008B70100089D
:1000C000B7010008B7010008B7010008B701000830
:1000D000B7010008B7010008B7010008B701000820
:1000E000B7010008B7010008B7010008B701000810
:1000F000B7010008B7010008B7010008B701000800
:10010000B7010008B7010008B7010008B7010008EF
:10011000B7010008B7010008B7010008B7010008DF
:10012000B7010008B7010008B7010008B7010008CF
:10013000B7010008B7010008B7010008B7010008BF
:10014000B7010008B7010008B7010008B7010008AF
:10015000B7010008B7010008B7010008B70100089F
:10016000B7010008B7010008B7010008B70100088F
:10017000B7010008B7010008B7010008000000003F
:10018000B7010008B7010008DFF80CD000F01EFB33
:100190000048004755550008B81000200648804721
:1001A00006480047FEE7FEE7FEE7FEE7FEE7FEE75C
:1001B000FEE7FEE7FEE7FEE7FD49000889010008CB
:1001C0002DE9F05F0546002092469B46884606468C
:1001D000814640241BE0284641464746224600F01F
:1001E0000EFA53465A46C01A914110D3114618468A
:1001F000224600F0F5F92D1A67EB01084F4622461A
:100200000120002100F0ECF917EB00094E41201EFF
:10021000A4F10104DFDC484631462A464346BDE8E6
:10022000F09FD2B201E000F8012B491EFBD27047CB
:100230000022F6E710B513460A4604461946FFF7B2
:10024000F0FF204610BD2DE9FE4F804681EA0300F5
:10025000C00F0C46009021F0004123F00045B8EBA0
:100260000200A94105D24046214690461C460B4655
:10027000024623F00040104347D0270DC7F30A0081
:10028000C3F30A510290401A019040286BDAC3F37D
:10029000130040F4801B0098924620B10023D2EB5B
:1002A000030A63EB0B0B01985946C0F1400250461C
:1002B00000F096F906460D4650465946019A00F060
:1002C000AEF910EB08006141002487EA115284EA7C
:1002D000E7731A4340D0009A62B3019A012A4FEAA9
:1002E000075215DC001B61EB02014FF0004202EAED
:1002F0000752CDE90042001C41F5801132462B46E1
:1003000000F0E5F903B0BDE8F08F40462146F9E77B
:10031000001B61EB0201001C41F5801300185B41DA
:100320002018A2F5001747EB030140EAD570B61973
:100330006D4111E06D084FEA360645EAC0754FEA97
:100340000752001B61EB0201001C41F580114908B6
:100350004FEA30000019514132462B4603B0BDE848
:10036000F04F00F0A5B90098012240000023D0EB27
:10037000020263EBE073009821464FEAE074B8EBA9
:10038000000061EB0401E9E783F000435BE781F0E3
:10039000004158E72DE9FE4F81EA030404F00044D0
:1003A00021F0004100944FF0000B23F0004350EA8D
:1003B00001045ED052EA03045BD0C3F30A54C1F3D4
:1003C0000A552C44A4F2F3340194A0FB0254C1F367
:1003D000130141F48011C3F3130343F4801301FBB1
:1003E000024400FB034E840A970A44EA815447EA18
:1003F0008357A4FB076802958D0A05FB07854FEA22
:10040000932C04FB0C542705029D4FEA065847EA3B
:100410001637B5EB08056EEB070C870E920E47EA10
:10042000811742EA8312A7FB0201B6EB0B0164EBD2
:1004300000042B0D43EA0C335E1844EB1C50DA46E3
:100440005146E7FB0201C5F313044FEA0B3343EABD
:1004500014534FEA0432019C43EA0603A4F10C044E
:100460000294009CCDE900B400F031F903B0BDE87E
:10047000F08F00200146F9E72DE9F04D81EA0304F1
:1004800004F0004B21F0004514464FF0000A23F021
:10049000004150EA050220D054EA01021DD0C5F304
:1004A0000A570246C5F31303C1F31300C1F30A56FA
:1004B00040F4801543F48013A7EB0608101BD646C2
:1004C00008F2FD3873EB050002D308F1010801E0E2
:1004D00092185B41B8F1000F03DA00200146BDE835
:1004E000F08D00204FF48011064684460EE0171B65
:1004F00073EB050705D3121B63EB050306434CEAB8
:10050000010C49084FEA300092185B4150EA01079C
:10051000EDD152EA030012D082EA040083EA050119
:10052000084305D0101BAB4106D20122002306E090
:1005300000224FF0004302E06FF0010253101AEB6B
:1005400006004CEB085110EB0A0041EB0B01BDE833
:10055000F04D00F0ADB800F0004230F000400AD09D
:10056000C10D01F56071C0F3160042EA0151C208E5
:1005700040071143704700200146704701F00043D7
:1005800030B421F0004150EA010206D00A0DA2F574
:100590006072C1F31301002A02DC30BC00207047F6
:1005A000440F44EAC104C100E01830BC00EBC25063
:1005B00000F047B830B50B46014600202022012448
:1005C00009E021FA02F59D4205D303FA02F5491B21
:1005D00004FA02F52844151EA2F10102F1DC30BD37
:1005E000202A04DB203A00FA02F1002070479140F3
:1005F000C2F1200320FA03F3194390407047202AE8
:1006000004DB203A21FA02F00021704721FA02F3BC
:10061000D040C2F120029140084319467047202A79
:1006200006DBCB17203A41FA02F043EAE07306E01A
:1006300041FA02F3D040C2F120029140084319462A
:1006400070470029A8BF7047401C490008BF20F030
:100650000100704710B4B0FA80FC00FA0CF050EAC8
:10066000010404BF10BC704749B1CCF1200421FA49
:1006700004F411FA0CF118BF012121430843A3EB44
:100680000C01CB1D4FEA00614FEA102042BF002051
:1006900010BC704700EBC35010440029A4BF10BC2D
:1006A0007047401C490008BF20F0010010BC704793
:1006B00010B5141E73F1000408DA401C41F100016A
:1006C00092185B411A4301D120F0010010BD2DE9C1
:1006D000F04D92469B4611B1B1FA81F202E0B0FAB8
:1006E00080F220329046FFF77BFF04460F4640EA37
:1006F0000A0041EA0B0153465A46084313D01146FB
:1007000053EA010019D0C8F140025046FFF777FFC5
:1007100005460E46504659464246FFF761FF0843DC
:1007200005D0012004E020463946BDE8F08D0020C8
:10073000054346EAE0762C4337430A986305E40A0A
:10074000A0EB08000022FD0A44EA47540A3002D513
:1007500000200146E9E7010510196941DDE9084576
:1007600000196941BDE8F04DA2E7C1F30A52C1F397
:10077000130140F2FF3341F480119A4202DA002063
:100780000146704740F233439A42A2F2334202DC00
:100790005242FFF734BFFFF723BF000030B5041EFD
:1007A00071F1000404DB4FF00044404264EB0101AE
:1007B000141E73F1000405DB1C464FF00043524247
:1007C00063EB0403994208BF904230BD1CB5094851
:1007D0000090094801900546009C06E0E06840F062
:1007E000010394E8070098471034AC42F6D3FFF7B2
:1007F000CFFC0000CC6E0008EC6E0008FFE7FEE7BF
:1008000080B592B08DED110ACDED100A8DED0F1A65
:10081000CDED0E1A8DED0D2ACDED0C2A8DED0B3A96
:10082000CDED0A3A09909DED110A9DED0B1A20EECF
:10083000010A10EE100AFFF78EFE41EC100B51EC8E
:10084000100B9FED6F0B53EC102B01930092FFF7F1
:10085000A1FD41EC100B51EC100B9FED6B0B53EC19
:10086000102B03930292FFF707FE41EC100B51ECA3
:10087000100BFFF783FE099908609DED100A9DEDAE
:100880000B1A20EE010A10EE100AFFF764FE009A20
:10089000019B41EC100B51EC100BFFF77BFD029A12
:1008A000039B41EC100B51EC100BFFF7E5FD41EC05
:1008B000100B51EC100BFFF761FE099948609DED9C
:1008C0000F0A9DED0B1A20EE010A10EE100AFFF739
:1008D00042FE009A019B41EC100B51EC100BFFF70C
:1008E00059FD029A039B41EC100B51EC100BFFF7E2
:1008F000C3FD41EC100B51EC100BFFF73FFE0999C3
:1009000088609DED0E0A9DED0A1A20EE010A9FED0A
:10091000441A8DED041A80EE010A10EE100AFFF75A
:100920001AFE41EC100B51EC100B9FED390B53EC00
:10093000102B06930592FFF72DFD41EC100B51ECA7
:10094000100B9FED350B53EC102B08930792FFF71C
:1009500093FD41EC100B51EC100BFFF70FFE9DEDDA
:10096000041A0999C8609DED0D0A9DED0A2A20EE32
:10097000020A80EE010A10EE100AFFF7ECFD059A5C
:10098000069B41EC100B51EC100BFFF703FD079A8F
:10099000089B41EC100B51EC100BFFF76DFD41EC87
:1009A000100B51EC100BFFF7E9FD9DED041A0999AE
:1009B00008619DED0C0A9DED0A2A20EE020A80EEE8
:1009C000010A10EE100AFFF7C6FD059A069B41ECDE
:1009D000100B51EC100BFFF7DDFC079A089B41EC64
:1009E000100B51EC100BFFF747FD41EC100B51ECD5
:1009F000100BFFF7C3FD0999486112B080BD00BF1D
:100A00009A99999999992340000000000000E040CC
:100A10004AD8124DFB2109400000000000806640CA
:100A2000000000477047000072B6FFE7FEE70000D5
:100A300080B584B003900291019200F03FF800F07D
:100A40007BF840F26810C2F2000090ED000A40F21C
:100A50006C10C2F20000D0ED000A40F27010C2F239
:100A6000000090ED001A40F27410C2F20000D0EDC8
:100A7000001A40F27810C2F2000090ED002A40F215
:100A80007C10C2F20000D0ED002A40F21800C2F241
:100A900000000090B3EE003ADFED073A02F0CAFE24
:100AA00000980168039A11604168029A1160806899
:100AB0000199086004B080BD0000FA4480B582B09E
:100AC0001F200DF10201062204F0CCFC9DF802105B
:100AD0009DF8030040EA012000B200EE100AB8EED3
:100AE000C00A40F26810C2F2000080ED000A9DF8D2
:100AF00004109DF8050040EA012000B200EE100A43
:100B0000B8EEC00A40F26C10C2F2000080ED000A9C
:100B10009DF806109DF8070040EA012000B200EEA3
:100B2000100AB8EEC00A40F27010C2F2000080ED68
:100B3000000A02B080BD000080B582B025200DF112
:100B40000201062204F08EFC9DF802109DF80300BD
:100B500040EA012000B200EE100AB8EEC00A40F2EE
:100B60007410C2F2000080ED000A9DF804109DF898
:100B7000050040EA012000B200EE100AB8EEC00AFB
:100B800040F27810C2F2000080ED000A9DF80610D5
:100B90009DF8070040EA012000B200EE100AB8EE0E
:100BA000C00A40F27C10C2F2000080ED000A02B0E0
:100BB00080BD000080B588B08DED070ACDED060A36
:100BC0008DED051ACDED041A8DED032ACDED022A27
:100BD000019040F20400C2F20000007801285AD1CE
:100BE000FFE79DED041A40F22C00C2F2000090EDE8
:100BF000000A30EE010A80ED000A9DED031A90ED27
:100C0000010A30EE010A80ED010A9DED021A90ED15
:100C1000020A30EE010A80ED020A40F22400C2F21C
:100C20000000016801310160006840F20801C2F271
:100C30000001096888422DD3FFE740F20801C2F2A3
:100C4000000191ED000AB8EE401A40F22C00C2F209
:100C5000000090ED000A80EE010A80ED000A91ED9F
:100C6000000AB8EE401A90ED010A80EE010A80ED0C
:100C7000010A91ED000AB8EE401A90ED020A80EEEA
:100C8000010A80ED020A40F20401C2F200010220D2
:100C90000870FFE7FFE740F20400C2F200000078AE
:100CA000022865D1FFE740F22C00C2F2000090ED6F
:100CB000001A9DED040A30EE410A8DED040A90ED14
:100CC000011A9DED030A30EE410A8DED030A90ED05
:100CD000021A9DED020A30EE410A8DED020A40F241
:100CE0002800C2F200000078B0B9FFE740F2280106
:100CF000C2F200010878013008709DED070ADDEDB1
:100D0000060A9DED051ADFED1B2AF0EE621AB0EE21
:100D1000622A02F05BF9FFE79DED040ADDED030AAC
:100D20009DED021ADDED071A9DED062ADDED052A7F
:100D30009FED104AB0EE443AF0EE443A02F0CEFE97
:100D400002F0F6FD40F2A810C2F20000006801991E
:100D5000086040F29410C2F20000006801994860F7
:100D600040F2B410C2F20000006801998860FFE709
:100D700008B080BD0000000080B584B0039000F092
:100D800011FA0290039801900198013048B1FFE7F1
:100D900040F21000C2F2000001780198084401906E
:100DA000FFE7FFE700F0FEF90299401A0199884237
:100DB00001D2FFE7F6E704B080BD00008EB00D90D1
:100DC0000C9100200A90099008900B90FFE70B9877
:100DD0000F2800F2CC81FFE70B99012088400A9090
:100DE0000C9800680A990840099009980A99884265
:100DF00040F0B881FFE70C98406800F0030001283C
:100E000007D0FFE70C98406800F0030002282FD1BC
:100E1000FFE70D98806808900B984100032000FAC6
:100E200001F10898884308900C98C0680B99490014
:100E300000FA01F108980843089008980D99886015
:100E40000D98406808900B99012000FA01F108986C
:100E5000884308900C984068C0F300100B9900FA82
:100E600001F108980843089008980D994860FFE739
:100E70000C98406800F00300032818D0FFE70D9895
:100E8000C06808900B984100032000FA01F108980F
:100E9000884308900C9880680B99490000FA01F18A
:100EA00008980843089008980D99C860FFE70C98C7
:100EB000406800F00300022826D1FFE70D980B9947
:100EC0006FF0030202EA51010844006A08900B988F
:100ED00000F0070081000F2000FA01F10898884314
:100EE00008900C9800690B9901F00701890000FA3D
:100EF00001F108980843089008980D990B9B02EAA5
:100F0000530211440862FFE70D98006808900B989F
:100F10004100032000FA01F10898884308900C98DA
:100F2000406800F003000B99490000FA01F10898AD
:100F30000843089008980D9908600C9880798007FC
:100F4000002800F00E81FFE7FFE70020079043F63E
:100F50004400C4F20200016841F48041016000686D
:100F600000F4804007900798FFE70B9820F00300FB
:100F700043F60801C4F20101405808900B9800F0B4
:100F8000030081000F2000FA01F1089888430890BF
:100F90000D980021C4F20201884203D1FFE700202E
:100FA00006905EE00D9840F20041C4F202018842D2
:100FB00003D1FFE70120059050E00D9840F60001B5
:100FC000C4F20201884203D1FFE70220049042E00C
:100FD0000D9840F60041C4F20201884203D1FFE7B8
:100FE0000320039034E00D9841F20001C4F20201A5
:100FF000884203D1FFE70420029026E00D9841F2D9
:101000000041C4F20201884203D1FFE705200190AC
:1010100018E00D9841F60001C4F20201884203D1A4
:10102000FFE7062000900AE00D9941F60042C4F265
:1010300002020820914208BF07200090FFE70098B5
:101040000190FFE701980290FFE702980390FFE705
:1010500003980490FFE704980590FFE70598069031
:10106000FFE70698C0B20B9901F00301890000FA6E
:1010700001F108980843089008980B9921F00301A2
:1010800043F60802C4F20102885043F60840C4F255
:1010900001000068089009990898884308900C9806
:1010A0008079C006002805D5FFE70999089808430C
:1010B0000890FFE7089843F60841C4F20101086070
:1010C00043F60C40C4F201000068089009990898A2
:1010D000884308900C9880798006002805D5FFE7A2
:1010E0000999089808430890FFE7089843F60C41CF
:1010F000C4F20101086043F60440C4F20100006834
:10110000089009990898884308900C98807980077E
:10111000002805D5FFE70999089808430890FFE7DC
:10112000089843F60441C4F20101086043F6004008
:10113000C4F2010000680890099908988843089053
:101140000C988079C00728B1FFE7099908980843EF
:101150000890FFE7089843F60041C4F201010860D7
:10116000FFE7FFE7FFE70B9801300B902FE60EB08B
:101170007047000082B00190ADF802108DF8012098
:101180009DF8010028B1FFE7BDF8020001998861D0
:1011900005E0BDF80200000401998861FFE702B094
:1011A0007047000040F2B010C2F2000000687047C3
:1011B00040F21000C2F20000027840F2B011C2F218
:1011C00000010868104408607047000080B543F6CD
:1011D0000041C4F20201086840F400700860086829
:1011E00040F480600860086840F480700860032064
:1011F00000F08AF80F2000F005F800F03BF800201E
:1012000080BD000080B582B0009040F20C00C2F2B8
:101210000000006840F21001C2F200010A784FF4A9
:101220007A71B1FBF2F1B0FBF1F001F05FF820B19F
:10123000FFE701208DF8070018E000980F280DD86F
:10124000FFE700994FF0FF30002200F043F80098CC
:1012500040F21401C2F20001086003E001208DF8A1
:10126000070003E000208DF80700FFE79DF8070066
:1012700002B080BD82B0FFE70020019043F6440039
:10128000C4F20200016841F480410160006800F48A
:10129000804001900198FFE7FFE70020009043F6AF
:1012A0004000C4F20200016841F080510160006812
:1012B00000F0805000900098FFE702B070470000F7
:1012C00080B582B08DF807009DF9070003F0B4FDEA
:1012D00002B080BD80B586B08DF8170004910392EE
:1012E0000020029003F0C0FD02909DF917000190CC
:1012F00002980499039A02F0D3FF0146019803F083
:10130000BBFD06B080BD000080B582B001900198A1
:1013100003F0D4FD02B080BD80B584B0029001918D
:10132000029820B9FFE701208DF80F0021E1019814
:1013300043F60041C4F20201096801F00701884246
:1013400012D9FFE7019943F60040C4F20200017090
:10135000006800F007000199884204D0FFE70120EF
:101360008DF80F0005E1FFE702980078800700285C
:101370002AD5FFE7029800784007002809D5FFE743
:1013800043F60801C4F20201086840F4E050086026
:10139000FFE7029800780007002809D5FFE743F629
:1013A0000801C4F20201086840F460400860FFE7E9
:1013B00043F60801C4F20201086820F0F000029A26
:1013C000926810430860FFE702980078C007002881
:1013D0006ED0FFE702984068012811D1FFE743F67D
:1013E0000000C4F20200006800F400310020B0EBFD
:1013F000514F04D1FFE701208DF80F00B9E02CE038
:1014000002984068022805D0FFE702984068032848
:1014100011D1FFE743F60000C4F20200006800F0BB
:1014200000710020B0EB516F04D1FFE701208DF86F
:101430000F009EE010E043F60000C4F202000068D6
:1014400000F002010020B0EB510F04D1FFE70120B2
:101450008DF80F008DE0FFE7FFE743F60801C4F2C7
:101460000201086820F00300029A526810430860E5
:10147000FFF798FE0090FFE743F60800C4F2020071
:10148000006800F00C0002994968B0EB810F0ED0A3
:10149000FFE7FFF787FE0099401A41F28931884241
:1014A00004D3FFE703208DF80F0062E0E4E7FFE7D5
:1014B000019843F60041C4F20201096801F00701F6
:1014C000884212D2FFE7019943F60040C4F20200BD
:1014D0000170006800F007000199884204D0FFE71E
:1014E00001208DF80F0044E0FFE7029800784007E4
:1014F00000280CD5FFE743F60801C4F20201086892
:1015000020F4E050029AD26810430860FFE7029886
:101510000078000700280DD5FFE743F60801C4F264
:101520000201086820F46040029A126940EAC20091
:101530000860FFE700F04CF843F60801C4F202012E
:101540000968C9B20A0946F67001C0F60001895C53
:10155000C84040F20C01C2F20001086040F21400E1
:10156000C2F200000068FFF74DFE00208DF80F006A
:10157000FFE79DF80F0004B080BD000040F20C00B2
:10158000C2F200000068704780B5FFF7F7FF43F62E
:101590000801C4F202010968C1F3822246F6800103
:1015A000C0F60001895CC84080BD000080B5FFF72F
:1015B000E5FF43F60801C4F20201096889B24A0B4B
:1015C00046F68001C0F60001895CC84080BD00007D
:1015D00080B586B00020059004900390029043F6F9
:1015E0000800C4F20200006800F00C0001460191FE
:1015F00040B1FFE7019804280AD0FFE701980828C6
:101600000CD04FE042F20040C0F2F40002904FE0F4
:1016100041F20020C0F27A00029049E043F6040053
:10162000C4F20200016801F03F0105910068400228
:10163000002813D5FFE743F60400C4F20200006857
:10164000C0F3881041F20021C0F27A01A0FB010131
:10165000059A0023FEF7B4FD049012E043F604005F
:10166000C4F202000068C0F3881042F20041C0F2E8
:10167000F401A0FB0101059A0023FEF7A1FD0490EF
:10168000FFE743F60400C4F20200006800F44031B2
:10169000022000EBD130039004980399B0FBF1F0E5
:1016A000029005E042F20040C0F2F4000290FFE731
:1016B000029806B080BD000080B586B00490049802
:1016C00020B9FFE701208DF8170050E30498007857
:1016D000C007002800F0A580FFE743F60800C4F229
:1016E0000200006800F00C00042813D0FFE743F666
:1016F0000800C4F20200006800F00C0008281ED1A7
:10170000FFE743F60400C4F202000068400200282C
:1017100015D5FFE743F60000C4F20200006800F4AC
:1017200000310020B0EB514F08D0FFE7049840682B
:1017300020B9FFE701208DF8170018E370E0FFE7FC
:1017400004984068B0F5803F09D1FFE743F60001F7
:10175000C4F20201086840F48030086020E0049878
:101760004068B0F5A02F0DD1FFE743F60001C4F2A9
:101770000201086840F480200860086840F4803066
:1017800008600CE043F60001C4F20201086820F48E
:1017900080300860086820F480200860FFE7FFE7D9
:1017A000FFE704984068E8B1FFE7FFF7FBFC039010
:1017B000FFE743F60000C4F20200006800F40031C5
:1017C0000020B0EB514F0CD1FFE7FFF7EBFC039982
:1017D000401A652804D3FFE703208DF81700C6E2FE
:1017E000E7E71CE0FFF7DEFC0390FFE743F60000AD
:1017F000C4F20200006800F400310020B0EB514F49
:101800000CD0FFE7FFF7CEFC0399401A652804D3FC
:10181000FFE703208DF81700A9E2E7E7FFE7FFE7FE
:10182000FFE7049800788007002840F19680FFE7E2
:1018300043F60800C4F20200006810F00C0F13D049
:10184000FFE743F60800C4F20200006800F00C0055
:1018500008282CD1FFE743F60400C4F20200006818
:101860004002002823D4FFE743F60000C4F2020040
:10187000006800F002010020B0EB510F09D0FFE733
:101880000498C068012804D0FFE701208DF81700F4
:101890006DE243F60001C4F20201086820F0F8008E
:1018A000049A126940EAC2000860FFE754E0049815
:1018B000C06870B3FFE70021C4F24721012008602F
:1018C000FFF770FC0390FFE743F60000C4F202004C
:1018D000006800F002010020B0EB510F0CD1FFE7CF
:1018E000FFF760FC0399401A032804D3FFE70320A5
:1018F0008DF817003BE2E7E743F60001C4F202016E
:10190000086820F0F800049A126940EAC2000860F2
:1019100021E00021C4F2472100200860FFF742FCCB
:101920000390FFE743F60000C4F20200006800F0F5
:1019300002010020B0EB510F0CD0FFE7FFF732FCA3
:101940000399401A032804D3FFE703208DF81700FA
:101950000DE2E7E7FFE7FFE7FFE7049800780007FD
:1019600000284BD5FFE70498406918B3FFE740F61D
:101970008061C4F2472101200860FFF713FC039047
:10198000FFE743F67400C4F20200006800F00201B1
:101990000020B0EB510F0CD1FFE7FFF703FC0399D8
:1019A000401A032804D3FFE703208DF81700DEE177
:1019B000E7E722E040F68061C4F24721002008609A
:1019C000FFF7F0FB0390FFE743F67400C4F2020058
:1019D000006800F002010020B0EB510F0CD0FFE7CF
:1019E000FFF7E0FB0399401A032804D3FFE7032025
:1019F0008DF81700BBE1E7E7FFE7FFE70498007801
:101A00004007002840F1CE80FFE700208DF8070056
:101A100043F64000C4F202000068C000002815D45C
:101A2000FFE7FFE70020009043F64000C4F2020009
:101A3000016841F080510160006800F08050009022
:101A40000098FFE701208DF80700FFE747F200004C
:101A5000C4F200000068C005002822D4FFE747F266
:101A60000001C4F20001086840F480700860FFF7CC
:101A700099FB0390FFE747F20000C4F20000006802
:101A8000C00500280CD4FFE7FFF78CFB0399401A30
:101A9000032804D3FFE703208DF8170067E1EAE786
:101AA000FFE7FFE704988068012809D1FFE743F6C4
:101AB0007001C4F20201086840F0010008601FE0F4
:101AC0000498806805280DD1FFE743F67001C4F241
:101AD0000201086840F004000860086840F0010056
:101AE00008600CE043F67001C4F20201086820F0BF
:101AF00001000860086820F004000860FFE7FFE7C5
:101B0000FFE704988068F8B1FFE7FFF74BFB03900D
:101B1000FFE743F67000C4F20200006800F0020123
:101B20000020B0EB510F0ED1FFE7FFF73BFB03990D
:101B3000401A41F28931884204D3FFE703208DF82F
:101B4000170014E1E5E71EE0FFF72CFB0390FFE729
:101B500043F67000C4F20200006800F002010020A9
:101B6000B0EB510F0ED0FFE7FFF71CFB0399401AB3
:101B700041F28931884204D3FFE703208DF8170032
:101B8000F5E0E5E7FFE79DF80700012809D1FFE749
:101B900043F64001C4F20201086820F0805008605A
:101BA000FFE7FFE704988069002800F0DC80FFE78A
:101BB00043F60800C4F20200006800F00C00082898
:101BC00000F08580FFE70498806902285CD1FFE778
:101BD0006021C4F2472100200860FFF7E3FA039078
:101BE000FFE743F60000C4F20200006800F0007155
:101BF0000020B0EB516F0CD0FFE7FFF7D3FA039949
:101C0000401A032804D3FFE703208DF81700AEE045
:101C1000E7E70499C869D1F820C04B6A8A6A40EAAC
:101C20000C0040EA8310D2034FF6FF739A43A2F5EB
:101C300080321043C96A40EA016043F60401C4F2ED
:101C4000020108606021C4F2472101200860FFF70B
:101C5000A9FA0390FFE743F60000C4F2020000680F
:101C600000F000710020B0EB516F0CD1FFE7FFF7DF
:101C700099FA0399401A032804D3FFE703208DF84B
:101C8000170074E0E7E721E06021C4F2472100205B
:101C90000860FFF787FA0390FFE743F60000C4F2FD
:101CA0000200006800F000710020B0EB516F0CD012
:101CB000FFE7FFF777FA0399401A032804D3FFE7F9
:101CC00003208DF8170052E0E7E7FFE74AE00498A9
:101CD0008069012804D1FFE701208DF8170046E054
:101CE00043F60400C4F20200006802900498806980
:101CF000012831D0FFE7029800F480000499C969F7
:101D0000884229D1FFE7029800F03F000499096A50
:101D1000884221D1FFE7029847F6C0710840049934
:101D2000496AB0EB811F17D1FFE7029800F44030F9
:101D30000499896AC9034FF6FF729143A1F5803176
:101D4000884209D1FFE7029800F070600499C96ADF
:101D5000B0EB016F04D0FFE701208DF8170006E01B
:101D6000FFE7FFE7FFE700208DF81700FFE79DF88A
:101D7000170006B080BD000080B584B002900298C4
:101D800020B9FFE701208DF80F0072E00298406A49
:101D900060B9FFE702984068B0F5827F01D1FFE7A4
:101DA00003E002990020C861FFE705E002990020E6
:101DB000086102994861FFE7029900208862029851
:101DC00090F8510040B9FFE70299002081F85000D7
:101DD000029800F053F8FFE70299022081F85100C1
:101DE00002980168086820F040000860029A019299
:101DF00011685068D2F808C0D36800F482700CF4FF
:101E0000044C604403F400631844136903F00203B4
:101E10001844536903F001031844936903F40073F1
:101E20001844D36903F038031844136A03F080039D
:101E30001843926A02F40052104308600298016845
:101E40008369426A042000EA134002F01002104441
:101E5000486002980168C86920F40060C86102996E
:101E600000204865029A012182F851108DF80F0078
:101E7000FFE79DF80F0004B080BD000080B58EB074
:101E80000D9000200C900B900A90099008900D98EE
:101E9000006843F60001C4F2000188425FD1FFE709
:101EA000FFE70020079043F64000C4F202000168FB
:101EB00041F480410160006800F480400790079879
:101EC000FFE7FFE70020069043F63000C4F202006F
:101ED000016841F004010160006800F00400069010
:101EE0000698FFE7FFE70020059043F63000C4F2B4
:101EF0000200016841F002010160006800F0020088
:101F000005900598FFE70C200890022000900990AA
:101F1000002001900A90032002900B90052003906E
:101F20000C9040F60000C4F2020008A90491FEF7EC
:101F300045FFDDF800C0019B029A039804994FF415
:101F4000806ECDF820E0CDF824C00A930B920C905F
:101F500040F20040C4F20200FEF730FFFFE70EB08F
:101F600080BD000080B58EB0DDF840C00C900B91B4
:101F70000A92ADF826300120059000208DF813005C
:101F8000FFE70C9890F85000012804D1FFE70220E9
:101F90008DF83700A6E10C99012081F85000FFE789
:101FA000FFE7FFF7FFF806900C9890F851008DF8C6
:101FB0001F000C9840680890BDF82600ADF824007A
:101FC0009DF81F00012812D0FFE70898B0F5827F26
:101FD00009D1FFE70C98806828B9FFE79DF81F003A
:101FE000042804D0FFE702208DF813006FE10B985E
:101FF00038B1FFE70A9820B1FFE7BDF8260020B905
:10200000FFE701208DF8130061E10C9890F8510072
:10201000042805D0FFE70C99052081F85100FFE75F
:102020000C99002048650A990C9A9163BDF8261016
:102030000C9AD187BDF826100C9A91870B990C9AAF
:102040001163BDF826100C9AD186BDF826100C9AA3
:1020500091860C9908640C9948640C980068006893
:1020600000F04000402807D0FFE70C98016808689E
:1020700040F040000860FFE70C98C068B0F5006FC2
:102080007AD1FFE70C98406828B1FFE7BDF824003B
:1020900001280ED1FFE70C980168006B0088C8602A
:1020A0000C99086B023008630C99C88E0138C886F9
:1020B000FFE7FFE70C98C18E0120029039B9FFE7D6
:1020C0000C98C08F002818BF01200290FFE70298EB
:1020D000C00700284FD0FFE70C9800688068800791
:1020E000002818D5FFE70C98C08EA0B1FFE705982F
:1020F000012810D1FFE70C980168006B0088C860C8
:102100000C99086B023008630C99C88E0138C88698
:1021100000200590FFE70C9800688068C007A8B110
:10212000FFE70C98C08F88B1FFE70C980068C06883
:102130000C99896B08800C99886B023088630C9924
:10214000C88F0138C88701200590FFE7FFF72AF8FC
:102150000699401A109988420CD3FFE71098013075
:1021600040B1FFE703208DF813000C99012081F89E
:102170005100ACE09EE77CE00C98406828B1FFE796
:10218000BDF8240001280ED1FFE70C980168006B10
:10219000007808730C99086B013008630C99C88E9D
:1021A0000138C886FFE7FFE70C98C18E0120019037
:1021B00039B9FFE70C98C08F002818BF01200190A3
:1021C000FFE70198C007002852D0FFE70C9800688D
:1021D00080688007002818D5FFE70C98C08EA0B152
:1021E000FFE70598012810D1FFE70C980168006B04
:1021F000007808730C99086B013008630C99C88E3D
:102200000138C88600200590FFE70C9800688068B8
:10221000C007A8B1FFE70C98C08F88B1FFE70C9802
:102220000068C0680C99896B08700C99886B013044
:1022300088630C99C88F0138C88701200590FFE793
:10224000FEF7B0FF0699401A1099884204D3FFE7C1
:102250001098013018B9FFE7109840B9FFE7032044
:102260008DF813000C99012081F851002FE09BE7B5
:10227000FFE70C981099069A02F036FA38B1FFE79A
:1022800001208DF813000C99202048651FE00C9860
:10229000806870B9FFE7FFE7002003900C980068A2
:1022A000C06803900C980068806803900398FFE76B
:1022B000FFE70C98406D20B1FFE701208DF8130077
:1022C00004E00C99012081F85100FFE7FFE7FFE7E8
:1022D0000C99002081F85000FFE79DF813008DF85D
:1022E0003700FFE79DF837000EB080BD80B582B0A3
:1022F0000190019802F0F6FA02B080BD81B0009022
:1023000001B0704781B0009001B0704785B0039074
:102310000291FFE7039890F83C00012804D1FFE701
:1023200002208DF813007EE00399012081F83C0023
:10233000FFE7FFE70399022081F83D00039800685A
:10234000406801900398006880680090019820F030
:10235000700001900298016801980843019001986B
:10236000039909684860039800680021C4F20101DC
:1023700088423CD0FFE703980068B0F1804F36D028
:10238000FFE70398006840F20041C4F20001884270
:102390002DD0FFE70398006840F60001C4F2000169
:1023A000884224D0FFE70398006840F60041C4F259
:1023B000000188421BD0FFE70398006840F200410B
:1023C000C4F20101884212D0FFE70398006844F28A
:1023D0000001C4F20101884209D0FFE703980068B8
:1023E00041F60001C4F2000188420ED1FFE70098D7
:1023F00020F0800000900298416800980843009007
:102400000098039909688860FFE70399012081F823
:102410003D00FFE70399002081F83C00FFE7002022
:102420008DF81300FFE79DF8130005B0704700001A
:1024300080B582B00090009820B9FFE701208DF8A8
:1024400007003FE0009890F83D0040B9FFE7009991
:10245000002081F83C00009800F038F8FFE7009970
:10246000022081F83D00009951F8040B02F0D8FADF
:102470000099012081F84600FFE70099012081F8CA
:102480003E00009981F83F00009981F840000099D2
:1024900081F84100FFE7FFE70099012081F8420041
:1024A000009981F84300009981F84400009981F86F
:1024B0004500FFE70099012081F83D0000208DF8DC
:1024C0000700FFE79DF8070002B080BD80B584B02B
:1024D00003900398006840F20041C4F20001884272
:1024E0001BD1FFE7FFE70020029043F64000C4F253
:1024F0000200016841F002010160006800F0020082
:1025000002900298FFE71D20019000221146FEF77D
:10251000E1FE0198FEF7D4FEFFE704B080BD0000A5
:1025200083B00190019890F83D00012804D0FFE7A6
:1025300001208DF80B006AE00199022081F83D002E
:1025400001980168C86840F00100C86001980068FF
:102550000021C4F2010188423CD0FFE701980068E5
:10256000B0F1804F36D0FFE70198006840F200419B
:10257000C4F2000188422DD0FFE70198006840F6C0
:102580000001C4F20001884224D0FFE701980068EE
:1025900040F60041C4F2000188421BD0FFE70198D9
:1025A000006840F20041C4F20101884212D0FFE706
:1025B0000198006844F20001C4F20101884209D088
:1025C000FFE70198006841F60001C4F2000188426B
:1025D00012D1FFE701980068806800F007000090C2
:1025E0000098062807D0FFE701980168086840F0C6
:1025F00001000860FFE706E001980168086840F004
:1026000001000860FFE700208DF80B00FFE79DF850
:102610000B0003B07047000080B586B004900391B2
:1026200000208DF80B00FFE7049890F83C0001288B
:1026300004D1FFE702208DF81700ABE004990120D8
:1026400081F83C00FFE7FFE70499022081F83D0094
:102650000498006880680190019820F0770001904C
:10266000019820F47F4001900198049909688860DE
:10267000039800680090002872D0FFE700981028A7
:102680006ED0FFE7009820286AD0FFE70098302836
:1026900066D0FFE70098402855D0FFE70098502803
:1026A00037D0FFE70098602840D0FFE700987028F7
:1026B0000BD0FFE70098B0F5805F05D0FFE70098EA
:1026C000B0F5005F16D052E055E004980068039B17
:1026D0005A689968DB6802F07BFA049800688068A1
:1026E0000190019840F077000190019804990968E1
:1026F000886040E004980068039B5A689968DB682A
:1027000002F066FA04980168886840F480408860A6
:1027100031E004980068039A5168D26802F088FAA0
:1027200004980068502102F06DFA24E004980068D3
:10273000039A5168D26802F0A3FA049800686021F5
:1027400002F060FA17E004980068039A5168D268B2
:1027500002F06EFA04980068402102F053FA0AE091
:10276000049800680399096802F04CFA03E001201C
:102770008DF80B00FFE70499012081F83D00FFE789
:102780000499002081F83C00FFE79DF80B008DF8CC
:102790001700FFE79DF8170006B080BD81B00090DC
:1027A00001B0704780B584B0039003980068C0689A
:1027B000029003980068006901909DF8040080076A
:1027C000002824D5FFE79DF80800800700281DD5C4
:1027D000FFE7039801686FF0020008610399012088
:1027E0000877039800688069800720B1FFE70398A5
:1027F000FFF7D4FF06E0039800F0E2F8039800F03A
:10280000E3F8FFE7039900200877FFE7FFE79DF86B
:1028100004004007002825D5FFE79DF80800400781
:1028200000281ED5FFE7039801686FF004000861D7
:1028300003990220087703980068806910F4407FAC
:1028400004D0FFE70398FFF7A9FF06E0039800F024
:10285000B7F8039800F0B8F8FFE70399002008776D
:10286000FFE7FFE79DF804000007002824D5FFE7F5
:102870009DF80800000700281DD5FFE703980168B0
:102880006FF0080008610399042008770398006836
:10289000C069800720B1FFE70398FFF77FFF06E0DC
:1028A000039800F08DF8039800F08EF8FFE7039985
:1028B00000200877FFE7FFE79DF80400C006002826
:1028C00025D5FFE79DF80800C00600281ED5FFE7C4
:1028D000039801686FF010000861039908200877D9
:1028E00003980068C06910F4407F04D0FFE70398A4
:1028F000FFF754FF06E0039800F062F8039800F039
:1029000063F8FFE7039900200877FFE7FFE79DF8EA
:102910000400C00778B1FFE79DF80800C00748B180
:10292000FFE7039801686FF001000861039800F069
:102930004FF8FFE7FFE79DF804000006002810D5D8
:10294000FFE79DF808000006002809D5FFE7039877
:1029500001686FF0800008610398FFF7CFFCFFE784
:10296000FFE79DF804004006002810D5FFE79DF81A
:1029700008004006002809D5FFE7039801686FF0BA
:1029800040000861039800F059F8FFE7FFE79DF861
:1029900004008006002810D5FFE79DF80800800697
:1029A000002809D5FFE7039801686FF0200008614F
:1029B0000398FFF7A7FCFFE7FFE704B080BD000026
:1029C00081B0009001B0704781B0009001B07047B5
:1029D00080B582B001900198006840F2D801C2F23F
:1029E00000010968884227D1FFE740F26000C2F287
:1029F0000000006844F62161884207DBFFE740F2EF
:102A00006001C2F2000100200860FFE740F26001AF
:102A1000C2F2000108680130086040F25C00C2F2B6
:102A2000000040F25801C2F2000140F26402C2F21A
:102A30000002FDF7FDFFFFE702B080BD81B000900E
:102A400001B0704780B582B00090009820B9FFE7D0
:102A500001208DF8070040E00098806908B1FFE789
:102A600000E0FFE7009890F8410040B9FFE70099C7
:102A7000002081F84000009800F034F8FFE700994A
:102A8000242081F8410000980168C86820F40050B3
:102A9000C860009802F01EF900980168086920F4E7
:102AA0009040086100980168486920F02A00486158
:102AB00000980168C86840F40050C8600099002080
:102AC0004864009A202182F84110009A82F842104E
:102AD000009948638DF80700FFE79DF8070002B0F2
:102AE00080BD000080B588B007900020069005905A
:102AF0000490039002900798006844F20041C4F2E9
:102B00000001884233D1FFE7FFE70020019043F640
:102B10004000C4F20200016841F400310160006825
:102B200000F4003001900198FFE7FFE700200090DB
:102B300043F63000C4F20200016841F00101016077
:102B4000006800F0010000900098FFE70C20029060
:102B50000220039000200490032005900720069097
:102B60000020C4F2020002A9FEF728F9FFE708B02E
:102B700080BD0000FFE7FEE780B592B076200E90A2
:102B80000021119102F098FC11200590012106917D
:102B900002F092FC1E200190FEF7EEF80E981199BB
:102BA00002F08AFC4F2002900621049102F084FC7E
:102BB00004995020039002F07FFC4E200F900F21CB
:102BC000109102F079FC0198FEF7D6F80E98119951
:102BD00002F072FC0298049902F06EFC03980499CA
:102BE00002F06AFC40F23801C2F200014DF24E10D0
:102BF000C3F69C3008604AF25800C3F68B20486048
:102C000051200A90562102F057FC059952200D9050
:102C100002F052FC53200B900D21079102F04CFC66
:102C20001199632002F048FC6520082102F044FC61
:102C30001199662002F040FC1199682002F03CFCDA
:102C40001199692002F038FC06990E9802F034FCC4
:102C50000B20A02102F030FC0C21084602F02CFCD5
:102C600007989021089102F027FC0E2080210991FD
:102C700002F022FC0E98022102F01EFC0320182113
:102C800002F01AFC0899042002F016FC09990520AC
:102C90000C9002F011FC0E98119902F00DFC0A98AC
:102CA000122102F009FC0B980C9902F005FC0D981A
:102CB000332102F001FC0E98119902F0FDFB0F98F0
:102CC000109902F0F9FB41F28830FEF755F811989F
:102CD00012B080BD80B582B001908DF80310002045
:102CE0008DF802008DF80200FFE79DF802009DF8C4
:102CF0000310884210DAFFE70198007802F098FB91
:102D000001990870019801300190FFE79DF80200D9
:102D100001308DF80200E8E702B080BD80B594B0C4
:102D2000002013901290119010900F90FFE7002058
:102D30000E9043F63000C4F20200016841F08001B9
:102D40000160006800F080000E900E98FFE7FFE73A
:102D500000200D9043F63000C4F20200016841F0FB
:102D600004010160006800F004000D900D98FFE779
:102D7000FFE700200C9043F63000C4F20200016827
:102D800041F001010160006800F001000C900C9816
:102D9000FFE7FFE700200B9043F63000C4F202008B
:102DA000016841F002010160006800F002000B9030
:102DB0000B98FFE7FFE700200A9043F63000C4F2CB
:102DC0000200016841F010010160006800F010008D
:102DD0000A900A98FFE7FFE70020099043F63000C9
:102DE000C4F20200016841F008010160006800F0CF
:102DF000080009900998FFE740F20040C4F2020081
:102E0000029040F6060100220492FEF7B3F9049AFC
:102E100041F20000C4F2020000904FF440710191B1
:102E2000FEF7A8F9049A40F60040C4F202000690AA
:102E30000C210891FEF79EF90298049906220F9240
:102E400011220392109211910121059112910FA963
:102E50000791FDF7B3FF0098DDF80CC0049B059ABD
:102E60000799DDF804E0CDF83CE0CDF840C01193BF
:102E70001292FDF7A3FF0298049A059B07994FF45D
:102E8000006CCDF83CC01093119203221292FDF712
:102E900095FFDDF80CC0049B059A06980799DDF8AC
:102EA00020E0CDF83CE0CDF840C011931292FDF740
:102EB00085FF14B080BD000080B582B040F2800074
:102EC000C2F20000009043F60001C4F2000101606C
:102ED0004FF482714160002101918160C160016104
:102EE00041614FF400728261C1610162416281629D
:102EF0000A21C162FEF740FF18B1FFE7FDF794FD1C
:102F0000FFE702B080BD000080B588B000210191CC
:102F100007910691059104910391029140F2D80026
:102F2000C2F2000040F20042C4F2000202604160BE
:102F300081604FF6FF72C26001618161FFF778FA2C
:102F400018B1FFE7FDF770FDFFE74FF480500490E4
:102F500040F2D800C2F2000004A9FFF75DFB18B1EF
:102F6000FFE7FDF761FDFFE700200290039040F2CC
:102F7000D800C2F2000002A9FFF7C8F918B1FFE7B4
:102F8000FDF752FDFFE708B080BD000080B582B0BC
:102F900040F22010C2F20000019044F20041C4F25D
:102FA000000101604FF4E131416000218160C160A6
:102FB00001610C2242618161C161FFF743FD18B1DB
:102FC000FFE7FDF731FDFFE702B080BD80B59CB0A3
:102FD0008DED1B0ACDED1A0A8DED191ACDED181ADB
:102FE0008DED172ACDED162A9DED1B0A9DED1A1ABF
:102FF00021EE011A20EE000A30EE011A9DED190AA9
:1030000020EE000A30EE010A02F08AFA8DED150A70
:103010009DED151A9DED1B0A20EE010A8DED1B0A90
:103020009DED151A9DED1A0A20EE010A8DED1A0A82
:103030009DED151A9DED190A20EE010A8DED190A74
:103040009DED180AB5EE400AF1EE10FA3DD0FFE70B
:103050009DED170AB5EE400AF1EE10FA35D0FFE704
:103060009DED160AB5EE400AF1EE10FA2DD0FFE7FD
:103070009DED180A9DED171A21EE011A20EE000AA7
:1030800030EE011A9DED160A20EE000A30EE010A1C
:1030900002F046FA8DED150A9DED151A9DED180A00
:1030A00020EE010A8DED180A9DED151A9DED170A07
:1030B00020EE010A8DED170A9DED151A9DED160AF9
:1030C00020EE010A8DED160AFFE79DED1B0AB1EE19
:1030D000400ADDED190A02F083FB8DED130A9DED28
:1030E0001A0ADDED190A02F07BFB8DED120A9DED47
:1030F000120A02F073FD8DED0B0A9DED120A02F02B
:10310000C5FC8DED0A0A9DED130A02F0BFFC8DEDA2
:10311000080A9DED130A02F061FD8DED090A9DED8F
:10312000180AB5EE400AF1EE10FA49D0FFE79DED1E
:10313000170AB5EE400AF1EE10FA41D0FFE79DED17
:10314000160AB5EE400AF1EE10FA39D0FFE79DED10
:10315000180A9DED083A9DED171A9DED092A21EEFA
:10316000021A9DED0B4A21EE041A20EE030A30EEFE
:10317000011A9DED160A20EE020A9DED0A2A20EEA4
:10318000020A30EE010A8DED070A9DED170A9DED4A
:103190000A2A9DED161A9DED0B3A21EE031A20EE38
:1031A000020A30EE410A8DED060A9DED060AB1EEE7
:1031B000400ADDED070A02F013FB8DED140A02E070
:1031C00000201490FFE79DED120AB6EE001A8DED77
:1031D000011A20EE010A02F059FC9DED011A8DED55
:1031E000110A9DED130A20EE010A02F04FFC9DED3D
:1031F000011A8DED100A9DED140A20EE010A02F06D
:1032000045FC9DED011A8DED0F0A9DED120A20EE91
:10321000010A02F0E3FC9DED011A8DED0E0A9DED11
:10322000130A20EE010A02F0D9FC9DED011A8DED82
:103230000D0A9DED140A20EE010A02F0CFFC8DED7F
:103240000C0A9DED110A9DED101A20EE010A9DED6C
:103250000F2A9DED0E1A9DED0D3A21EE031A9DEDFC
:103260000C3A21EE031A20EE020A30EE010A40F277
:103270009813C2F20003029383ED000A9DED0E0A3B
:103280009DED101A20EE010A9DED0F2A9DED111AF9
:103290009DED0D3A21EE031A9DED0C3A21EE031A35
:1032A00020EE020A30EE410A40F29C12C2F2000205
:1032B000039282ED000A9DED110A9DED0D1A20EE9C
:1032C000010A9DED0F2A9DED0E1A9DED103A21EE9B
:1032D000031A9DED0C3A21EE031A20EE020A30EE9D
:1032E000010A40F2A011C2F20001049181ED000A2E
:1032F0009DED110A9DED101A20EE010A9DED0C2A9C
:103300009DED0E1A9DED0D3A21EE031A9DED0F3A3B
:1033100021EE031A20EE020A30EE410A40F2A41018
:10332000C2F20000059080ED000A93ED000A92EDD4
:10333000001A21EE011A20EE000A30EE011A91ED7A
:10334000000A20EE000A30EE011A90ED000A20EE8D
:10335000000A30EE010A00F085FB029B039A0499F3
:1033600005988DED150A9DED151A93ED000A20EED6
:10337000010A83ED000A9DED151A92ED000A20EE78
:10338000010A82ED000A9DED151A91ED000A20EE6A
:10339000010A81ED000A9DED151A90ED000A20EE5C
:1033A000010A80ED000A1CB080BD000080B594B019
:1033B0008DED130ACDED120A8DED111ACDED101A17
:1033C0008DED0F2ACDED0E2A9DED100AB5EE400AC7
:1033D000F1EE10FA11D1FFE79DED0F0AB5EE400AAC
:1033E000F1EE10FA09D1FFE79DED0E0AB5EE400AA5
:1033F000F1EE10FA00F03081FFE79DED100A9DED2F
:103400000F1A21EE011A20EE000A30EE011A9DED8E
:103410000E0A20EE000A30EE010A02F081F88DED6E
:103420000D0A9DED0D1A9DED100A20EE010A8DED9D
:10343000100A9DED0D1A9DED0F0A20EE010A8DED8B
:103440000F0A9DED0D1A9DED0E0A20EE010A8DED7D
:103450000E0A40F29C13C2F2000393ED000A40F200
:10346000A410C2F2000090ED002A40F29811C2F2BE
:10347000000191ED001A40F2A012C2F2000292ED9A
:10348000003A21EE031A20EE020A30EE410A8DEDD9
:103490000C0A91ED000A93ED002A92ED001A90EDCE
:1034A000003A21EE031A20EE020A30EE010A8DEDF9
:1034B0000B0A91ED000A20EE000ABEEE001A30EE73
:1034C000011A90ED000A20EE000A30EE010A8DED9F
:1034D0000A0A9DED0F0A9DED0A2A9DED0E1A9DED3B
:1034E0000B3A21EE031A20EE020A30EE410A8DED6E
:1034F000090A9DED0E0A9DED0C2A9DED101A9DED19
:103500000A3A21EE031A20EE020A30EE410A8DED4E
:10351000080A9DED100A9DED0B2A9DED0F1A9DEDF9
:103520000C3A21EE031A20EE020A30EE410A8DED2C
:10353000070A40F2AC10C2F2000090ED000AB5EEAE
:10354000400AF1EE10FA5DDDFFE740F2AC13C2F283
:10355000000393ED000A9DED091A20EE010A40F2E6
:103560008C10C2F2000090ED002A40F28012C2F2EC
:10357000000292ED001A20EE020A30EE010A82EDFE
:10358000000A93ED000A9DED081A20EE010A90ED65
:10359000002A40F28411C2F2000191ED001A20EEDF
:1035A000020A30EE010A81ED000A93ED000A9DED5A
:1035B000071A20EE010A90ED002A40F28810C2F2AC
:1035C000000090ED001A20EE020A30EE010A80EDB4
:1035D000000A92ED001A9DED130A30EE010A8DEDFE
:1035E000130A91ED001A9DED120A30EE010A8DEDDD
:1035F000120A90ED001A9DED110A30EE010A8DEDD0
:10360000110A10E040F28011C2F2000100200860AF
:1036100040F28411C2F20001086040F28811C2F247
:1036200000010860FFE79DED090A9DED131A30EED9
:10363000010A8DED130A9DED080A9DED121A30EE78
:10364000010A8DED120A9DED070A9DED111A30EE6B
:10365000010A8DED110AFFE740F28C10C2F2000062
:1036600090ED000AB6EE001A20EE012A9DED130A35
:1036700020EE020A8DED130A90ED000A20EE012AD9
:103680009DED120A20EE020A8DED120A90ED000A5D
:1036900020EE011A9DED110A20EE010A8DED110AAE
:1036A00040F29813C2F2000300931868069040F2AB
:1036B0009C12C2F2000201921068059040F2A01123
:1036C000C2F200010291086804909DED050A9DED8B
:1036D000132A9DED041A9DED123A21EE031A20EEF5
:1036E000420A30EE410A40F2A410C2F200000390F8
:1036F00090ED001A9DED112A21EE021A30EE411ACA
:1037000093ED000A30EE010A83ED000A9DED060AF2
:103710009DED132A9DED041A9DED113A21EE031A39
:1037200020EE020A30EE010A90ED001A9DED122AF9
:1037300021EE021A30EE411A92ED000A30EE010A33
:1037400082ED000A9DED060A9DED122A9DED051AF7
:103750009DED113A21EE031A20EE020A30EE411AD5
:1037600090ED000A9DED132A20EE020A30EE011AB8
:1037700091ED000A30EE010A81ED000A9DED060A86
:103780009DED112A9DED051A9DED123A21EE031AC9
:1037900020EE020A30EE010A9DED041A9DED132A77
:1037A00021EE021A30EE411A90ED000A30EE010AC5
:1037B00080ED000A93ED000A92ED001A21EE011A45
:1037C00020EE000A30EE011A91ED000A20EE000A08
:1037D00030EE011A90ED000A20EE000A30EE010AE8
:1037E00001F09EFE009B019A029903988DED0D0A4F
:1037F0009DED0D1A93ED000A20EE010A83ED000AFB
:103800009DED0D1A92ED000A20EE010A82ED000AEC
:103810009DED0D1A91ED000A20EE010A81ED000ADE
:103820009DED0D1A90ED000A20EE010A80ED000AD0
:1038300014B080BD80B58AB08DED090ACDED080ABF
:103840008DED071ACDED061A8DED052ACDED042A72
:103850008DED033ACDED023A01909DED090ADDEDC3
:10386000080A9DED071ADDED061A9DED052ADDED2E
:10387000042A9DED033ADDED023A40F24000C2F227
:1038800000000090FCF7BCFF009890ED000AD0ED1E
:10389000010A90ED021AD0ED031A90ED042AD0ED42
:1038A000052A0198FDF786F90AB080BD81B08DED3B
:1038B000000A40F2AC11C2F200010020086040F2A0
:1038C0009812C2F200024FF07E51116040F29C113A
:1038D000C2F20001086040F2A011C2F200010860CB
:1038E00040F2A411C2F20001086040F28011C2F25D
:1038F0000001086040F28411C2F20001086040F249
:103900008811C2F20001086040F26801C2F20001B1
:1039100008709DED001AB7EE000A80EE010A40F231
:103920008C10C2F2000080ED000A01B07047000068
:1039300080B588B040F29810C2F20000039090ED7C
:10394000000A40F29C10C2F20000019090ED001AB3
:1039500040F2A010C2F20000029090ED002A40F266
:10396000A410C2F20000049090ED003A22EE033A57
:1039700020EE010A30EE030A21EE013AB6EE001AFB
:103980008DED051A31EE431A22EE022A71EE420A3B
:1039900040F2A810C2F20000009001F0ADFADDF88C
:1039A00000C0019B0399049A02989CED000A9FEDC8
:1039B0002C1A8DED061A20EE010A8CED000A93ED0B
:1039C000001A92ED002A91ED000A90ED003A20EEE7
:1039D000030A21EE021A30EE410A30EE000A01F02D
:1039E00069FE019B029A039904989DED051A9DEDCD
:1039F000062A20EE020A40F2941CC2F2000C8CED62
:103A0000000A93ED000A92ED003A91ED004A90ED24
:103A1000002A24EE024A20EE030A30EE040A23EEC6
:103A2000033A31EE431A22EE022A71EE420A40F2C4
:103A3000B410C2F20000079001F05EFA9DED061A84
:103A4000079890ED000A20EE010A80ED000A40F28E
:103A50006801C2F200010120087008B080BD00BFFB
:103A6000E12E654284B08DED030A9DED030AB6EEAA
:103A7000001A20EE010A8DED020A039801900198C8
:103A80000090009945F6DF10C5F63770A0EB610095
:103A90000090009801909DED010A9DED021A21EE23
:103AA000001A21EE002AB7EE081A31EE422A20EE63
:103AB000020A8DED010A9DED010A9DED022A22EE1A
:103AC000002A22EE002A31EE421A20EE010A8DED84
:103AD000010A9DED010A04B07047000080B5AAB04C
:103AE0008DED290ACDED280A8DED271ACDED261A88
:103AF0008DED252ACDED242A8DED233ACDED223A08
:103B00008DED214A9DED230AB5EE400AF1EE10FA43
:103B10001FD1FFE79DED220AB5EE400AF1EE10FA43
:103B200017D1FFE79DED210AB5EE400AF1EE10FA3C
:103B30000FD1FFE79DED290ADDED280A9DED271A3B
:103B4000DDED261A9DED252ADDED242AFFF72EFC5A
:103B5000A0E39DED260AB5EE400AF1EE10FA11D170
:103B6000FFE79DED250AB5EE400AF1EE10FA09D106
:103B7000FFE79DED240AB5EE400AF1EE10FA00F0E1
:103B80009682FFE79DED260A9DED251A21EE011A8A
:103B900020EE000A30EE011A9DED240A20EE000A04
:103BA00030EE010A01F0BCFC8DED200A9DED201ADB
:103BB0009DED260A20EE010A8DED260A9DED201AC4
:103BC0009DED250A20EE010A8DED250A9DED201AB6
:103BD0009DED240A20EE010A8DED240A9DED230AB5
:103BE0009DED221A21EE011A20EE000A30EE011A94
:103BF0009DED210A20EE000A30EE010A01F090FC52
:103C00008DED200A9DED201A9DED230A20EE010A7C
:103C10008DED230A9DED201A9DED220A20EE010A6A
:103C20008DED220A9DED201A9DED210A20EE010A5C
:103C30008DED210A40F29810C2F2000090ED000ACA
:103C400020EE000A8DED1F0A90ED000A40F29C1252
:103C5000C2F2000292ED001A20EE010A8DED1E0A5A
:103C600090ED000A40F2A011C2F2000191ED001A9D
:103C700020EE010A8DED1D0A90ED000A40F2A4101D
:103C8000C2F2000090ED001A20EE010A8DED1C0A30
:103C900092ED000A20EE000A8DED1B0A92ED000A5B
:103CA00091ED001A20EE010A8DED1A0A92ED000A3C
:103CB00090ED001A20EE010A8DED190A91ED000A2F
:103CC00020EE000A8DED180A91ED000A90ED001A21
:103CD00020EE010A8DED170A90ED000A20EE000A91
:103CE0008DED160A9DED230A9DED181AB6EE003AE9
:103CF0008DED053A33EE411A9DED162A31EE422A3A
:103D00009DED221A9DED1A4A9DED1C5A34EE454A4E
:103D100021EE041A20EE020A30EE011A9DED210A6E
:103D20009DED192A9DED1D4A32EE042A20EE020A6D
:103D300030EE010A30EE000A8DED150A9DED230AE2
:103D40009DED1A1A9DED1C2A31EE022A9DED221AD4
:103D50009DED1B4A33EE443A9DED164A33EE443A4C
:103D600021EE031A20EE020A30EE011A9DED210A1F
:103D70009DED172A9DED1E3A32EE432A20EE020AEF
:103D800030EE010A30EE000A8DED140A9DED150AA1
:103D90009DED141A21EE011A20EE000A30EE010A00
:103DA00001F0E4FF9DED053A8DED130A9DED230A28
:103DB0009DED191A9DED1D2A31EE422A9DED221A24
:103DC0009DED174A9DED1E5A34EE054A21EE041A68
:103DD00020EE020A30EE011A9DED210A9DED1B2A0C
:103DE00033EE422A9DED184A32EE442A20EE020AB2
:103DF00030EE010A30EE000A8DED120A9DED190A2F
:103E00009DED1D1A30EE410A8DED110A9DED1E0A41
:103E10009DED171A30EE010A8DED100A9DED1F0A77
:103E200030EE430A9DED161A30EE010A8DED0F0AB1
:103E30009DED130A9DED181A33EE411A9DED162AD9
:103E400031EE422A9DED121A9DED194A9DED1D5A43
:103E500034EE454A21EE041A20EE020A30EE010A41
:103E60008DED0E0A9DED130A9DED1A1A9DED1C2A8B
:103E700031EE422A9DED121A9DED1E4A9DED175A14
:103E800034EE054A21EE041A20EE020A30EE010A51
:103E90008DED0D0A9DED130A9DED1D1A9DED192A5C
:103EA00031EE022A9DED121A9DED1B4A33EE443A83
:103EB0009DED184A33EE443A21EE031A20EE020A31
:103EC00030EE010A8DED0C0A9DED250A9DED0F2ABD
:103ED0009DED241A9DED103A21EE031A20EE020A00
:103EE00030EE411A9DED220A9DED0C3A9DED212AFE
:103EF0009DED0D4A22EE042A20EE030A30EE420A1E
:103F000030EE010A8DED0B0A9DED240A9DED112A7C
:103F10009DED261A9DED0F3A21EE031A20EE020ABE
:103F200030EE411A9DED210A9DED0E3A9DED232ABA
:103F30009DED0C4A22EE042A20EE030A30EE420ADE
:103F400030EE010A8DED0A0A9DED260A9DED102A3C
:103F50009DED251A9DED113A21EE031A20EE020A7D
:103F600030EE411A9DED230A9DED0D3A9DED222A7A
:103F70009DED0E4A22EE042A20EE030A30EE420A9C
:103F800030EE010A8DED090A40F2AC10C2F20000D9
:103F900090ED000AB5EE400AF1EE10FA5DDDFFE7A4
:103FA00040F2AC13C2F2000393ED000A9DED0B1A30
:103FB00020EE010A40F28C10C2F2000090ED002ABF
:103FC00040F28012C2F2000292ED001A20EE020AC4
:103FD00030EE010A82ED000A93ED000A9DED0A1A07
:103FE00020EE010A90ED002A40F28411C2F2000195
:103FF00091ED001A20EE020A30EE010A81ED000A6E
:1040000093ED000A9DED091A20EE010A90ED002AB9
:1040100040F28810C2F2000090ED001A20EE020A71
:1040200030EE010A80ED000A92ED001A9DED290A9A
:1040300030EE010A8DED290A91ED001A9DED280A56
:1040400030EE010A8DED280A90ED001A9DED270A49
:1040500030EE010A8DED270A10E040F28011C2F225
:1040600000010020086040F28411C2F200010860E3
:1040700040F28811C2F200010860FFE79DED0B0AD3
:104080009DED291A30EE010A8DED290A9DED0A0AEF
:104090009DED281A30EE010A8DED280A9DED090AE2
:1040A0009DED271A30EE010A8DED270AFFE740F259
:1040B0008C10C2F2000090ED000AB6EE001A20EE5D
:1040C000012A9DED290A20EE020A8DED290A90EDC4
:1040D000000A20EE012A9DED280A20EE020A8DED4D
:1040E000280A90ED000A20EE011A9DED270A20EE25
:1040F000010A8DED270A40F29813C2F200030193E2
:104100001868089040F29C12C2F2000202921068F5
:10411000079040F2A011C2F20001039108680690D6
:104120009DED070A9DED292A9DED061A9DED283A81
:1041300021EE031A20EE420A30EE410A40F2A410AA
:10414000C2F20000049090ED001A9DED272A21EEA6
:10415000021A30EE411A93ED000A30EE010A83EDA7
:10416000000A9DED080A9DED292A9DED061A9DED98
:10417000273A21EE031A20EE020A30EE010A90EDF2
:10418000001A9DED282A21EE021A30EE411A92ED16
:10419000000A30EE010A82ED000A9DED080A9DED4D
:1041A000282A9DED071A9DED273A21EE031A20EEED
:1041B000020A30EE411A90ED000A9DED292A20EE08
:1041C000020A30EE011A91ED000A30EE010A81ED8B
:1041D000000A9DED080A9DED272A9DED071A9DED29
:1041E000283A21EE031A20EE020A30EE010A9DED74
:1041F000061A9DED292A21EE021A30EE411A90EDA1
:10420000000A30EE010A80ED000A93ED000A92EDFB
:10421000001A21EE011A20EE000A30EE011A91ED8B
:10422000000A20EE000A30EE011A90ED000A20EE9E
:10423000000A30EE010A01F073F9019B029A03991A
:1042400004988DED200A9DED201A93ED000A20EED2
:10425000010A83ED000A9DED201A92ED000A20EE7E
:10426000010A82ED000A9DED201A91ED000A20EE70
:10427000010A81ED000A9DED201A90ED000A20EE62
:10428000010A80ED000A40F26801C2F2000100203C
:104290000870FFE72AB080BDFFE7FEE7FFE7FEE713
:1042A00088B0079006910592079800F007000490E7
:1042B0000498C0F10700052803D3FFE7042001900C
:1042C00004E00498C0F107000190FFE70198039013
:1042D00004980430062803D8FFE70020009003E08C
:1042E000049803380090FFE700980290069803991D
:1042F000012202FA01F101390840029B9840059918
:104300009A40013A1140084308B0704780B582B026
:1043100000208DF80600FFE79DF80600072820DC46
:10432000FFE79DF806000021009100F0DDF80098FD
:104330008DF80700FFE79DF807007F280ADCFFE7FC
:10434000002000F0BBF9FFE79DF8070001308DF871
:104350000700F0E7FFE79DF8060001308DF8060042
:10436000DAE702B080BD000080B582B00120019084
:1043700000F068F9019800F079F902B080BD000002
:1043800080B582B08DF8070000208DF80600FFE7A9
:104390009DF80600072816DCFFE79DF807009DF84A
:1043A00006208021D140084000F060F9012000F093
:1043B00049F9002000F046F9FFE79DF806000130BA
:1043C0008DF80600E4E7012000F03CF9002000F041
:1043D00039F902B080BD000080B582B001200090A4
:1043E00000F044F9009800F02DF90020019000F051
:1043F0003DF9019800F026F902B080BD80B582B089
:10440000002000F033F90120019000F01BF9019821
:1044100000F02CF902B080BD80B582B00020019080
:10442000FFE70198C0087C2812D8FFE70020009021
:10443000FFE70098C0087C2805D8FFE7FFE7009851
:1044400001300090F5E7FFE7019801300190E8E7BF
:10445000FFF78AFFAE2000F01DF9D52000F01AF911
:10446000802000F017F9A82000F014F93F2000F098
:1044700011F9D32000F00EF9002000F00BF94020D4
:1044800000F008F9A12000F005F9C82000F002F9B9
:10449000DA2000F0FFF8122000F0FCF8812000F094
:1044A000F9F8CF2000F0F6F8D92000F0F3F8F12069
:1044B00000F0F0F8DB2000F0EDF8302000F0EAF832
:1044C000A42000F0E7F8A62000F0E4F88D2000F02A
:1044D000E1F8142000F0DEF8AF2000F0DBF8FFF781
:1044E00015FF02B080BD000080B582B08DF80700D6
:1044F0008DF806109DF8070040F0B00000F0CAF8F3
:104500009DF806000009103000F0C4F89DF8060080
:1045100000F00F0000F0BEF802B080BD80B582B0A0
:104520008DF807008DF806108DF805209DF807100E
:104530006FF0010000EB41009DF806206FF00701CD
:1045400001EBC201C0B2C9B2FFF7CEFF00208DF867
:104550000400FFE79DF80400072819DCFFE79DF839
:10456000051046F68800C0F6000000EB01109DF82B
:10457000041008444FF60061CFF6FF71405C00F074
:104580009DF8FFE79DF8040001308DF80400E1E795
:104590009DF807104FF0FF3000EB41009DF806201A
:1045A0006FF0070101EBC201C0B2C9B2FFF79CFF77
:1045B00000208DF80400FFE79DF80400072819DCAF
:1045C000FFE79DF8051046F68800C0F6000000EBF6
:1045D00001109DF8041008444FF60861CFF6FF71F2
:1045E000405C00F06BF8FFE79DF8040001308DF8A7
:1045F0000400E1E702B080BD80B584B08DF80F0003
:104600008DF80E10029200208DF80700FFE7029847
:104610009DF80710405C98B1FFE79DF80F009DF8EA
:104620000E109DF807301944029AD25CC9B2FFF708
:1046300075FFFFE79DF8070001308DF80700E6E7FA
:1046400004B080BD80B582B08DF807009DF80720CA
:1046500041F20000C4F202004FF48071FCF78AFDC1
:10466000012000F0D1FE02B080BD000080B582B014
:104670008DF807009DF8072041F20000C4F2020007
:104680004FF40071FCF776FD012000F0BDFE02B092
:1046900080BD000080B582B08DF80700FFF79CFE5A
:1046A0007820FFF76DFE0020FFF76AFE9DF80700F7
:1046B000FFF766FEFFF7A2FE02B080BD80B582B0B4
:1046C0008DF80700FFF788FE7820FFF759FE40209D
:1046D000FFF756FE9DF80700FFF752FEFFF78EFE2C
:1046E00002B080BD7047000080B586B00490039191
:1046F00002920498039B02996A46116002210122EA
:1047000000F058F848B1FFE70499486D40F02000E8
:10471000486503208DF8170048E040F20C00C2F213
:10472000000000684AF6AB21CAF6AA21A0FB0110DE
:1047300000094FF2A171C1F2C601A0FB0110000CEB
:104740004FF47A714843019004984068B0F5827F35
:1047500015D1FFE70498039B02996A4611608021F6
:10476000002200F027F848B1FFE70499486D40F0B7
:104770002000486503208DF8170017E012E0FFE7DE
:10478000019808B9FFE70CE0019801380190FFE7B4
:10479000049800688068C1B20020B0EBD11FEFD14F
:1047A000FFE7FFE700208DF81700FFE79DF81700EF
:1047B00006B080BD80B58AB0DDF830C008900791A2
:1047C0008DF81B20059305980190FCF7EBFC024641
:1047D00001980C99891A08440390FCF7E3FC0290B5
:1047E000039840F20C01C2F200010968C1F3CB3119
:1047F00048430490FFE708980068806807990840DC
:10480000401AB0FA80F040099DF81B1088425ED033
:10481000FFE705980130002858D0FFE7FCF7C2FCFD
:104820000299401A0399884204D2FFE703980028AE
:1048300042D1FFE708980168486820F0E00048602E
:1048400008984068B0F5827F13D1FFE70898806828
:10485000B0F5004F06D0FFE708988068B0F5806F8C
:1048600007D1FFE708980168086820F04000086059
:10487000FFE70898806AB0F5005F0FD1FFE7FFE718
:1048800008980168086820F40050086008980168DA
:10489000086840F400500860FFE7FFE7089901202E
:1048A00081F85100FFE70899002081F85000FFE7E8
:1048B00003208DF827000EE0049818B9FFE70020C8
:1048C0000390FFE7049801380490FFE793E7002086
:1048D0008DF82700FFE79DF827000AB080BD000093
:1048E0007047000080B582B0009000980138B0F1A8
:1048F000807F03D3FFE70120019019E00098013881
:104900004EF21401CEF2000108604FF0FF300F218B
:1049100000F0B2FA4EF21801CEF200010020086059
:104920004EF21002CEF20002072111600190FFE763
:10493000019802B080BD000080B5FCF739FC80BD55
:1049400080B594B008A83021FBF772FC00200790D6
:104950000690059004900390FFE70020029043F634
:104960004000C4F20200016841F08051016000681B
:1049700000F0805002900298FFE7FFE700200190CE
:1049800047F20000C4F20000016841F48041016078
:10499000006800F4804001900198FFE70120089032
:1049A0004FF48030099002210E914FF480000F9057
:1049B00004201090A82211921291139008A8FCF7DD
:1049C0007BFE18B1FFE7FCF72FF8FFE70F200390FD
:1049D00002200490002005904FF4A05006904FF460
:1049E0008050079003A80521FCF796FC18B1FFE75B
:1049F000FCF71AF8FFE714B080BD00004EF68851AE
:104A0000CEF20001086840F47000086070470000B2
:104A100080B540F2D800C2F20000FDF7C3FE80BDB1
:104A200083B00290019102980068009002980021E2
:104A3000C4F20101884225D0FFE70298B0F1804F0F
:104A400020D0FFE7029840F20041C4F20001884202
:104A500018D0FFE7029840F60001C4F20001884236
:104A600010D0FFE7029840F60041C4F200018842EE
:104A700008D0FFE7029840F20041C4F201018842E9
:104A80000AD1FFE7009820F070000090019841687B
:104A9000009808430090FFE702980021C4F201014A
:104AA000884255D0FFE70298B0F1804F50D0FFE721
:104AB000029840F20041C4F20001884248D0FFE76A
:104AC000029840F60001C4F20001884240D0FFE79E
:104AD000029840F60041C4F20001884238D0FFE756
:104AE000029840F20041C4F20101884230D0FFE751
:104AF000029844F20001C4F20101884228D0FFE785
:104B0000029844F20041C4F20101884220D0FFE73C
:104B1000029844F60001C4F20101884218D0FFE770
:104B2000029841F60001C4F20001884210D0FFE76C
:104B3000029841F60041C4F20001884208D0FFE724
:104B4000029842F20001C4F2000188420AD1FFE754
:104B5000009820F4407000900198C16800980843C4
:104B60000090FFE7009820F0800001994969084310
:104B70000090009802990860019880680299C862C4
:104B8000019800680299886202980021C4F201012C
:104B9000884208D0FFE7029840F20041C4F20101C8
:104BA000884205D1FFE70198006902990863FFE791
:104BB00002990120486102980069C00730B1FFE7FF
:104BC0000299086920F001000861FFE703B070470F
:104BD00085B004900391029201930498806800903C
:104BE000009820F47F40009003980299019A41EACE
:104BF00002210143009808430090009804998860BE
:104C000005B0704783B002900191029880680090CF
:104C1000009820F07000009001980099084340F03F
:104C20000700009000980299886003B07047000068
:104C300085B00490039102920498006A0090049950
:104C4000086A20F0010008620498806901900198C8
:104C500020F0F00001900299019840EA01100190C3
:104C6000009820F00A0000900399009808430090F3
:104C700001980499886100980499086205B070470A
:104C800085B00490039102920498006A0090049900
:104C9000086A20F010000862049880690190019869
:104CA00020F4704001900299019840EA013001908F
:104CB000009820F0A00000900399009840EA0110AD
:104CC000009001980499886100980499086205B0E1
:104CD0007047000080B586B00590059800680069AF
:104CE00020F44050059A1168D26810430861059974
:104CF00088680B694A69C9691843104308430490DE
:104D000005980068C06849F20C618843049908431B
:104D100005990968C86005980068406920F44070EA
:104D2000059A11689269104348610598006841F23C
:104D30000001C4F20101884209D0FFE7059800682C
:104D400041F20041C4F20101884204D1FFE7FCF7BF
:104D50002DFC039003E0FCF717FC0390FFE7059898
:104D6000C069B0F5004F29D1FFE703981921A0FBD6
:104D70000101059A1368029353685A00DB0FFBF791
:104D80001FFA0299864648F21F53C5F2EB13AEFB99
:104D90000320420910014FF0640C02FB1CEC32228C
:104DA00002EBCC02A2FB0332F82303EA521300EB1E
:104DB0004300C2F342121044886026E00398192190
:104DC000A0FB0101059A1368019353689A009B0F99
:104DD000FBF7F6F90199844648F21F52C5F2EB122F
:104DE000ACFB02304309642003FB10CC322000EB03
:104DF0000C10A0FB0202F02000EA521000EB03109E
:104E0000C2F3431210448860FFE706B080BD000083
:104E1000FFE7FEE782B041EC100B8DED000B01982F
:104E2000C00F02B07047000081B000EE100A009081
:104E30000098C00F01B0704781B08DF803009DF954
:104E4000030000280ED4FFE79DF9031001F01F02B4
:104E5000012090404A094EF20011CEF2000141F8C3
:104E60002200FFE701B070474EF60C50CEF2000072
:104E70000068C0F30220704782B08DF807000091EF
:104E80009DF9070000280AD4FFE7009800019DF96A
:104E900007104EF20042CEF2000288540BE0009858
:104EA00000019DF8071001F00F014EF61452CEF2EA
:104EB00000028854FFE702B07047000083B0029000
:104EC000029800F0070000904EF60C51CEF200015F
:104ED0000868019001984FF6FF0210400190019878
:104EE000009A40EA02200022C0F2FA5210430190D8
:104EF0000198086003B0704780B5A0B08DED030A3B
:104F0000CDED020A01909DED020AB5EE400AF1EEE8
:104F100010FA40F3A280FFE79DED030A9DED021A0F
:104F200080EE010A8DED0D0A00200C900B909DED96
:104F30000D0AB5EE400AF1EE10FA09DAFFE701209A
:104F40000C909DED0D0AB1EE400A8DED0D0AFFE7C4
:104F50009DED0D0AB7EE001AB4EE410AF1EE10FA1B
:104F600039DDFFE79DED0D1AB7EE000A80EE010A6C
:104F70008DED0D0A0D98109049F2A520CBF6045046
:104F80000F9001200E900E90FFE70E98092819DC73
:104F9000FFE79DED100A9DED0F2A0E98C0F1090163
:104FA00046F67860C0F6000000EB810090ED001A34
:104FB00020EE020A30EE010A8DED0F0A0E98013044
:104FC0000E90E2E79DED0F1A9FEDD90A30EE410AEF
:104FD0008DED0B0A30E00D98139049F2A520CBF629
:104FE00004501290012011901190FFE711980928A8
:104FF00019DCFFE79DED130A9DED122A1198C0F10F
:10500000090146F67860C0F6000000EB810090EDE3
:10501000001A20EE020A30EE010A8DED120A1198F4
:1050200001301190E2E79DED121A9DED0B0A30EE72
:10503000010A8DED0B0AFFE70C9838B1FFE79DEDF3
:105040000B0AB1EE400A8DED0B0AFFE70B980199B0
:10505000086000208DF81300BCE19DED020AB5EE5A
:10506000400AF1EE10FA80F28481FFE79DED030A19
:10507000B5EE400AF1EE10FA40F3A580FFE79DED92
:10508000030A9DED021A80EE010A8DED0A0A002046
:10509000099008909DED0A0AB5EE400AF1EE10FA6B
:1050A00009DAFFE7012009909DED0A0AB1EE400AF6
:1050B0008DED0A0AFFE79DED0A0AB7EE001AB4EE7D
:1050C000410AF1EE10FA39DDFFE79DED0A1AB7EE5D
:1050D000000A80EE010A8DED0A0A0A98169049F23C
:1050E000A520CBF604501590012014901490FFE7F2
:1050F0001498092819DCFFE79DED160A9DED152A85
:105100001498C0F1090146F67860C0F6000000EB83
:10511000810090ED001A20EE020A30EE010A8DEDBA
:10512000150A149801301490E2E79DED151A9FEDD1
:10513000AB0A30EE410A8DED080A30E00A9819906A
:1051400049F2A520CBF60450189001201790179033
:10515000FFE71798092819DCFFE79DED190A9DED77
:10516000182A1798C0F1090146F67860C0F60000C9
:1051700000EB810090ED001A20EE020A30EE010AE9
:105180008DED180A179801301790E2E79DED181A77
:105190009DED080A30EE010A8DED080AFFE7099837
:1051A00038B1FFE79DED080AB1EE400A8DED080A1F
:1051B000FFE79DED080A9FED8B1A30EE010A01987A
:1051C00080ED000AD1E09DED030AB5EE400AF1EE54
:1051D00010FA80F2A580FFE79DED030A9DED021A0B
:1051E00080EE010A8DED070A0020069005909DEDE6
:1051F000070AB5EE400AF1EE10FA09DAFFE70120DE
:1052000006909DED070AB1EE400A8DED070AFFE713
:105210009DED070AB7EE001AB4EE410AF1EE10FA5E
:1052200039DDFFE79DED071AB7EE000A80EE010AAF
:105230008DED070A07981C9049F2A520CBF6045083
:105240001B9001201A901A90FFE71A98092819DC80
:10525000FFE79DED1C0A9DED1B2A1A98C0F109017C
:1052600046F67860C0F6000000EB810090ED001A71
:1052700020EE020A30EE010A8DED1B0A1A98013069
:105280001A90E2E79DED1B1A9FED540A30EE410A99
:105290008DED050A30E007981F9049F2A520CBF666
:1052A00004501E9001201D901D90FFE71D980928B5
:1052B00019DCFFE79DED1F0A9DED1E2A1D98C0F128
:1052C000090146F67860C0F6000000EB810090ED21
:1052D000001A20EE020A30EE010A8DED1E0A1D981A
:1052E00001301D90E2E79DED1E1A9DED050A30EE9E
:1052F000010A8DED050AFFE7069838B1FFE79DED3D
:10530000050AB1EE400A8DED050AFFE79DED050A9D
:105310009FED331A30EE010A019880ED000A23E078
:10532000002038B9FFE70398FFF77EFD68B913E066
:10533000DB0FC93F0398FBF70EF941EC100B51EC62
:10534000100BFFF767FD38B1FFE7019940F6DB70FE
:10535000CCF24900086006E0019940F6DB70C4F227
:1053600049000860FFE7FFE7FFE700208DF8130022
:1053700030E09DED020AB5EE400AF1EE10FA25D1BB
:10538000FFE79DED030AB5EE400AF1EE10FA0ADDE3
:10539000FFE7019940F6DB70C3F6C9700860002092
:1053A0008DF8130016E09DED030AB5EE400AF1EE0C
:1053B00010FA0ADAFFE7019940F6DB70CBF6C97004
:1053C000086000208DF8130004E0FFE7FC208DF852
:1053D0001300FFE79DF9130020B080BDDB0FC93F2C
:1053E000DB0F49C0DB0F494080B5FCF7C7F84DF62D
:1053F0008361C4F21B31A0FB0110800D40F29011BB
:10540000C2F20001086080BD81B0009040F29010AF
:10541000C2F200000068009948430A380090FFE794
:105420000098411E009108B1FFE7F9E701B070470D
:1054300080B582B08DF8070000208DF8060069461F
:105440000520086040F28000C2F200000DF1070163
:105450000DF106020123FCF785FD9DF8060002B060
:1054600080BD000080B586B08DF817000491ADF8BE
:105470000E209DF8170040F080008DF8170040F2D4
:105480000040C4F2020000904FF40061019100223C
:10549000FBF770FE0DF1170001210291FDF71AFCD8
:1054A00004989DF80E10FDF715FC00980199029ADA
:1054B000FBF760FE06B080BD80B582B08DF80700B6
:1054C0008DF806109DF807009DF8061000F002F810
:1054D00002B080BD80B586B08DF817008DF816102B
:1054E00040F20040C4F2020001904FF400610291CA
:1054F00000220492FBF73EFE0DF1170001210391FB
:10550000FDF7E8FB03990DF11600FDF7E3FB0198A9
:105510000299039AFBF72EFE049806B080BD0000A6
:1055200083B08DED010A4FF07E50009001980290FB
:105530009DED020AB1EEC00A8DED020A9DED021A40
:105540009DED000A80EE010A8DED000A9DED000A36
:1055500003B0704780B586B000200590FBF736FE9B
:10556000FFF7EEF9FDF7DAFBFDF7A6FCFDF7CCFC43
:10557000FDF70CFDFFF738FFFEF74EFFFDF7FCFAD5
:105580009FED370AFEF792F940F2D800C2F2000010
:10559000FCF7C6FFFFE740F25C00C2F200000068C3
:1055A000FAF7D9FF41EC100B53EC102B40F26900D5
:1055B000C2F20000049046F6B461C0F6000100F0AB
:1055C00051F8049A012103910846FFF715F840F2BB
:1055D0005800C2F200000068FAF7BDFF02460498C6
:1055E00001920A46019942EC101B53EC102B46F62F
:1055F000A861C0F6000100F035F80399049A022072
:10560000FEF7FAFF40F26400C2F200000068FAF709
:10561000A2FF0246049802920A46029942EC101B2D
:1056200053EC102B46F6BF61C0F6000100F01AF8EB
:105630000399049A0320FEF7DFFF049840F260010B
:10564000C2F200010A6846F6A061C0F6000100F04F
:1056500009F80399049A0420FEF7CEFF9BE700BFE8
:1056600000007A440FB4084B10B504A902AA0398AD
:1056700000F032FD044602A9002001F0C4F82046E3
:1056800010BC5DF814FB0000076800084100080228
:1056900018BF04200A0E18BF40F001004FF07F42EF
:1056A00032EA010108BF40F00200012808BF0520CE
:1056B0007047000010B54FF00E402DED028BB0EE9C
:1056C000408A18EE104A00EB4400B0F1506F4AD8FF
:1056D0004FF0FC40B0EB440F22D2B0EEC80AF7EE18
:1056E000000A30EEC00AF6EE000A60EE208A18EEDC
:1056F000900A01F08DF801EE100A14F0004F1DBF62
:10570000DFED2D0A9FED2D0AB1EE411ADFED2C0AD7
:1057100008BF9FED2C0AF8EE001A21EE218A05E061
:10572000DFED290A68EE088AB0EE600A9FED271ABD
:10573000DFED271A30EE080A48EE811A9FED251A90
:1057400008EEA11ADFED241A48EE811A9FED231A04
:1057500008EEA11A68EE281ABDEC028B01EE810A50
:1057600030EE200A10BD4FF0E440B0EB440F0CD9EE
:1057700018EE100AFFF78AFF042808BF00F022FB8A
:10578000B0EE480ABDEC028B10BD4FF07F40B0EB8D
:10579000440F07D2B0EE480ABDEC028BBDE81040C2
:1057A00000F001BB012000F0CFFBBDEC028BBDE897
:1057B000104000F0FFBA00000000C9BF22AAFDB9E6
:1057C0000000C93F22AAFD390000000024FE1C3D54
:1057D000C78AD83C1E67383D1B93993DAFAA2A3E25
:1057E00070B54FF068422DED048BF0EE408A18EE54
:1057F000900AB0EE608A18EE101A02EB4003B3F183
:10580000654F3CBF02EB4102B2F1654F7DD200BF54
:10581000C0F3C753C1F3C7529A1A1B2A09DD10F00F
:10582000004F14BF9FED830A9FED830ABDEC048BEC
:1058300070BD12F11A0F36DA11F0004F09D010F0D6
:10584000004F0CBF9FED7D0A9FED7D0ABDEC048BE0
:1058500070BD88EE889A19EE100AFFF717FF04282A
:1058600008BF00F0AFFA18EE900AFFF70FFF0546E9
:1058700018EE100AFFF70AFF044619EE100AFFF7A8
:1058800005FF042D18BF052D08D1042C18BF052CC9
:1058900004D1002804BF022000F056FBB0EE490AF4
:1058A000BDEC048B70BD4200B2EB410F3AD910F051
:1058B000004F19BFDFED630A9FED630ADFED630A56
:1058C0009FED630AB0EE481A0A46B1EE688A80F08E
:1058D0000041F0EE418A10460A1A5200B2F1807F70
:1058E00034D2484010F0004FDFED5A1A9FED5A2A8B
:1058F0001DBFBEEE001A70EEE10A30EE420AB6EEAF
:10590000001A08BF70EEA10A00E040E008BF30EEC8
:10591000020AB0EE682A01EE482A08EE818AC2EE39
:10592000081A15E011F0004F04BF9FED4C0AF0EE8D
:10593000400AD1D010F0004F19BFDFED490A9FEDAA
:10594000490ADFED490A9FED490AC5E7C8EE881A02
:1059500021EEA11A9FED462ADFED462A41EE022AEA
:105960009FED452A01EE222ADFED442A41EE022A6C
:105970009FED432ABDEC048B01EE222A21EE811A11
:1059800001EE020A30EE210A30EE200A70BD4FF01F
:105990007F42B2EB400F28BFB2EB410F09D2F0EECD
:1059A000480AB0EE680ABDEC048BBDE8704000F018
:1059B000FDB940EA01035B0008BF41F0FF410BD095
:1059C000B2EB400F08BFB2EB410F08D120F080408E
:1059D00008EE900A21F0804108EE101A18E7B2EBA9
:1059E000400F12BF5FEA410340F0FF4001F0004169
:1059F0003FF40EAFB2EB410F12BF5FEA400200F07E
:105A0000004041F0FF413FF403AF4A0092EA4003F7
:105A10003FF5FEAE002AACBF9FED1A0A9FED1A0AB1
:105A200068EE808A28EE008A18EE900A18EE101AA6
:105A3000EEE60000DB0FC9BFDB0FC93FDB0F4940BB
:105A4000DB0F49C00000C9BF22AAFDB90000C93F51
:105A500022AAFD390060ED3EC30ACE3700000000E7
:105A6000000049C022AA7DBA0000494022AA7D3A1E
:105A70002DAD65BD8FB8D53D0FB511BE61C84C3E8B
:105A8000A8AAAABE0000804F0000802F10EE101AB6
:105A900008B5444A6846B2EB410F28D94FF0E640BA
:105AA000B0EB410F94BF00204FF0FF300090009802
:105AB000002861DB60EE000A10F0010F45D010F005
:105AC000020FDFED391A9FED391A00EEA11ADFED52
:105AD000381A40EE811A21EEA01AF0EE400A40EE8C
