:020000040800F2
:1000000008110020010300085D4D0008AD3600080E
:10001000594D000825150008D158000800000000BF
:10002000000000000000000000000000A1530008D4
:100030002915000800000000A5510008F953000828
:100040001B0300081B0300081B0300081B03000818
:100050001B0300081B0300081B0300081B03000808
:100060001B0300081B0300081B0300081B030008F8
:100070001B0300081B0300081B0300081B030008E8
:100080001B0300081B0300081B0300081B030008D8
:100090001B0300081B0300081B0300081B030008C8
:1000A0001B0300081B0300081B0300081B030008B8
:1000B0001B030008D15400081B0300081B030008A1
:1000C0001B0300081B0300081B0300081B03000898
:1000D0001B0300081B0300081B0300081B03000888
:1000E0001B0300081B0300081B0300081B03000878
:1000F0001B0300081B0300081B0300081B03000868
:100100001B0300081B0300081B0300081B03000857
:100110001B0300081B0300081B0300081B03000847
:100120001B0300081B0300081B0300081B03000837
:100130001B0300081B0300081B0300081B03000827
:100140001B0300081B0300081B0300081B03000817
:100150001B0300081B0300081B0300081B03000807
:100160001B0300081B0300081B0300081B030008F7
:100170001B0300081B0300081B030008000000000D
:100180001B0300081B03000800F002F800F0A8F8A9
:1001900014A696E8000CB244B344DA4501D100F04D
:1001A0009FF8BAE80F000FA696E83000A5EB04050B
:1001B00004EB0607AAEB0704A7F101074FEA1515A0
:1001C0004FEA3414A4F10104AC4201D300F088F8E2
:1001D00013F0010F18BFFB1A43F0010300F001F800
:1001E000DBE71847CC780000EC780000103A24BF19
:1001F00078C878C1FAD8520724BF30C830C144BF8C
:1002000004680C6070470000704700000023002461
:1002100000250026103A28BF78C1FBD8520728BF16
:1002200030C148BF0B6070476E2900F0D98170293A
:1002300000F01B83662907F07980652907F0768036
:10024000672907F07380612907F0728003681B0A31
:1002500028BF41F08001692900F08681642900F0FF
:100260008381752900F080816F2900F0A9827829A7
:1002700000F0E782E92900F04382E42900F040829F
:10028000F52900F03D82EF2900F0A682F82900F060
:10029000E6820368DB0928BF41F08001632900F092
:1002A000EB87732900F0F087E32900F0FB87F3293F
:1002B00001F00080002070471FB507F02AF801F018
:1002C0002BF804000020002106F096FF401C60601F
:1002D0000020002106F07AFFE0601FBD10B510BDC0
:1002E000DFF80CD0FFF7E8FF05F094FE01F0CAF844
:1002F0000811002003B4FFF7F1FF03BC01F0CCF8B4
:100300000648804706480047FEE7FEE7FEE7FEE7AF
:10031000FEE7FEE7FEE7FEE7FEE7FEE7BD54000866
:100320008901000853EA020C00F069802DE9F04BC6
:100330004FF00006002B1FBFB3FA83F503FA05F454
:1003400024FA05F65E4012BF1643B2FA82F502FAAD
:1003500005F4C5F120051EBF22FA05FC44EA0C0491
:10036000203556EA044C4FEA144418BF641C4FF081
:1003700000084FF00009904271EB030C39D30029BB
:1003800019BFB1FA81F701FA07F6B0FA80F700FA5F
:1003900007F6C7F120071EBF20FA07FC46EA0C0645
:1003A0002037B6FBF4FCA7EB0507103F07F01F0B47
:1003B000CBF120062CFA06F60CFA0BFB44BFB34631
:1003C0000026202FA4BF5E464FF0000B5BEA060C10
:1003D00008BF4FF0010B19EB0B0948EB0608ABFB0C
:1003E000027C06FB02CC0BFB03CCC01B71EB0C01A7
:1003F000C1E70B46024641464846BDE8F08B13B5BF
:10040000084318BF4FF0FF300146AFF30080BDE84E
:100410001C4070470FB41CB5084B06AA7B446946C4
:100420000090059800F0F5F804460020694600F0B9
:1004300003F920461CBC5DF814FB00001902000003
:100440004FF0000200B5134694469646203922BF6D
:10045000A0E80C50A0E80C50B1F12001BFF4F7AFB8
:10046000090728BFA0E80C5048BF0CC05DF804EB9A
:10047000890028BF40F8042B08BF704748BF20F808
:10048000022B11F0804F18BF00F8012B704710B5F8
:1004900000F0BAFA006810BD10B5044600F0B4FAD6
:1004A000046010BD70B5044685690068C10601D5B9
:1004B000302600E02026C00707D070BDD4E9012116
:1004C00030469047206A401C20626D1EF6D570BDF4
:1004D00070B5044685690078C00707D170BDD4E9BE
:1004E000012120209047206A401C20626D1EF6D515
:1004F00070BD09684A0501D540B27047C905FCD5F1
:1005000000B2704709684A0501D5C0B27047C905F5
:10051000FCD580B2704770B50C460546012A05D05F
:100520002878800600D5EA69002302E0012305E06F
:100530005B1C934202D2E05C0028F9D1A869E6185E
:10054000C01AA861286A184428622846FFF7AAFF43
:1005500004E0D5E9012114F8010B9047B442F8D327
:100560002846FFF7B5FF70BD2DE9F041064600248F
:1005700010687529314616A510D0FFF7BAFF00287C
:1005800002DA404213A507E031688A0701D512A5B7
:1005900002E0490704D511A5012401E0FFF7B2FFED
:1005A00000210A2206F1240709E0B0FBF2FCB0FBAF
:1005B000F2F302FB1C00303078541846491C002826
:1005C000F3D123462A463046BDE8F04100F065BA33
:1005D000000000002D0000002B00000020000000A3
:1005E00011680268006A530501D508700AE0D30556
:1005F00001D5088006E0130603D5C217C1E9000241
:1006000000E008600120704701694A1C0261087817
:10061000704700B58FB0CDE9013100210591054942
:100620007944CDE903101146684600F029F90FB06E
:1006300000BD0000E5FFFFFF0A6802F8010B0A6039
:10064000704700002DE9FF5F15468A460446DFF833
:10065000AC80F8440027D8E900103E46CDE90010F0
:1006600010E03AF816106A4602A800F027FE411C76
:1006700007D02178890603D5E269391891420DD84F
:100680000744761C2078800602D5E069B84205DD73
:10069000AE42E6DB3AF816000028E2D1A069C01BA2
:1006A000A0612046FFF7FEFED8E90010CDE900105A
:1006B000002017E03AF818106A4602A800F0FEFD84
:1006C000B0F1FF3F81460BD000250DF1080B05E08E
:1006D000D4E901211BF8050090476D1C4D45F7D367
:1006E00008F10100B0428046E4DB206A3844206211
:1006F0002046FFF7EDFEBDE8FF9F0000DE6C000026
:100700002DE9F0418046D21D22F007020025D2E9F2
:100710000002F52915A614D0011E72F1000106DAB7
:100720000023D0EB030063EB020211A608E0D8F827
:1007300000108B0701D50FA602E0490701D50EA6D0
:1007400001251146002408F1240704E000F060F9B7
:1007500030323A55641C50EA0102F7D12B4632463A
:1007600021464046BDE8F04100F097B90000000086
:100770002D0000002B0000002000000030B40021FC
:1007800000F1240408E002F00705D208303542EAFF
:100790004372DB086554491C52EA0305F3D104682F
:1007A000002310A2250708D504F020040C4304D030
:1007B000C46901230CA2641EC46130BC00F06DB991
:1007C00010B5044621461068FFF79CFE02462046FD
:1007D000BDE810400023D1E7D21D22F00701D1E986
:1007E0000023CBE70000000030000000F0B40D460D
:1007F0000188090502D5214C7C4402E01F4C7C4451
:100800000E34002100F1240608E002F00F0712095F
:10081000E75D42EA03721B097754491C52EA030759
:10082000F3D102780023120704D5702D06D009B148
:10083000022311342246F0BC00F02FB901231034FA
:10084000F8E770B504460D4621461068FFF75AFEDA
:10085000024629462046BDE870400023C6E7D21D67
:1008600022F00703D3E90023C0E70368126843F0CE
:10087000200303600823C3610023B7E7406B000037
:100880002DE9F05F894604464FF0000ADFF874B1A5
:10089000FB44C0F820A02046E1688847002874D0B7
:1008A000252806D0D4E901219047206A401C206207
:1008B000F1E700265F462046E16888472028054684
:1008C00007DB312D05D2781910F8200C08B106434A
:1008D000F1E7B00701D526F00406C4F81CA00027F4
:1008E000C4F818A02A2D09D0284606F049FC38B3D0
:1008F00004EB8708303DC8F8185019E059F8041B7C
:10090000204604EB87029161E1688847012F054684
:1009100018D1E069002820DA26F020061DE0D8F87A
:10092000180000EB800005EB40003038C8F81800D4
:100930002046E1688847054606F022FC0028EED1F3
:10094000012F0AD02E2D08D12046E16888477F1C50
:100950000546022F46F02006C4DBA069002803DA12
:10096000404246F00106A061F00701D026F01006D3
:100970006C2D0BD0682D09D04C2D39D06A2D35D077
:10098000742D35D07A2D33D016E038E0E1682F464B
:1009900020468847B842054609D16C2F26D04FF42F
:1009A0008060E168064320468847054604E06C2FD6
:1009B0001AD04FF4807006430DB3A5F141001928F9
:1009C00002D8203546F400664A462946204626606D
:1009D0004E46FFF729FC80B101280BD0F61D26F00A
:1009E000070000F1080956E74020E4E78020D8E737
:1009F0000020D6E706F104094DE7284652E7206AB1
:100A0000BDE8F09FD06A0000004870471000002049
:100A100030B5B0F10A0271F100034FEA900E4EEAD0
:100A2000817EB0EB0E0061EB91014FEA101E4EEAA1
:100A3000017E10EB0E0041EB11114FEA102E4EEA31
:100A4000016E10EB0E0041EB11214FEA104E4EEA01
:100A5000014E10EB0E0041EB1141401841F1000135
:100A60004FEAD00040EA41704FEAD1014FEA8104D9
:100A700044EA907410EB800544EB01046D1944EBDB
:100A80000404521BA3414FF0000348BF0A3200D5B3
:100A900030BD401C41F1000130BD2DE9F0470D464D
:100AA00099469246044600F124080168880604D558
:100AB000E06921F01001216000E00120A84201DD81
:100AC000471B00E00027A1697A1902EB0900081A08
:100AD000A0612078C00602D42046FFF7E3FC002680
:100AE00008E0D4E901211AF806009047206A401C6A
:100AF000761C20624E45F4DB2078C0060AD52046DD
:100B0000FFF7D0FC06E0D4E9012130209047206AAD
:100B1000401C2062381EA7F10107F4DC07E0D4E98D
:100B2000012118F805009047206A401C2062281E09
:100B3000A5F10105F3DC2046FFF7CAFC207800068A
:100B400002D50220BDE8F0870120FBE72DE9FF4F29
:100B50000C461E464FF0FF378BB0D2E90001DDF89E
:100B600060800A908A46C1F30A5505B93D460021C6
:100B700008464FF00000BAF1000F00F4400005DA1B
:100B800000EB80004FF4400101EA50004FEA905919
:100B9000B9F1010F00DDB9460A9850EA4A000ED0BB
:100BA00044F61050A5F2FF3545432F14B8F1000F5D
:100BB0001ED07542291E1EDDC9F100021CE0B8F1ED
:100BC000010F4FF0000001D0302103E0F24305E0B7
:100BD0002154401CB042FBDB30460022002121544E
:100BE0000B99C1F80880C1E900200FB0BDE8F08F73
:100BF000BD1B6D1CDEE74A4600DA694206A800F01C
:100C0000CFFB06AB93E8070003AB83E80700504631
:100C10000A9905F087FA8DE80700A0F500501F3803
:100C200000900398002D0ADD42F21F014A46084455
:100C3000002303A90390684605F0F0FC09E0A0F545
:100C400000504A461F38002303A90390684605F068
:100C5000FAFC8DE807000004000C03D04FF0FF30D1
:100C6000410800E01046B8F1000F03D000220092C6
:100C700015461EE0751E05D4FFF7CAFE30326255D8
:100C80006D1EF9D5B3460122084302D000227F1C15
:100C900004E02078302801D100227F1E002A099725
:100CA00084D01DE0112D07DAFFF7B2FE3032625515
:100CB0006D1C50EA0102F5D1084302D00098C8B17A
:100CC0000EE00021681E05E0235C625C6354225440
:100CD000401E491C8142F7DBAB46A81B401E099011
:100CE000002004F80B000B98099AC0F80880C0E9AE
:100CF000002B7AE711264FF0000857E72DE9F04F57
:100D000088460446D21D22F0070191B0D1E90001C6
:100D1000CDE90A0105F0CEFD02460B98C00F01D0C7
:100D20002D2007E02068810701D52B2002E020213B
:100D300001EAC000032A099001D0072A05DB034617
:100D40004146204600F0ECFA0BE12078800601D500
:100D5000E06900E00620B8F1650F814606D0B8F1E1
:100D6000660F18D0B8F1670F70D131E00020B9F1EB
:100D7000110F009001DB112301E009F101030AAA20
:100D800001A90CA8FFF7E2FEDDE90C70002609F1CD
:100D90000105834647E001204B4600904FF0004795
:100DA0000AAA01A90CA8FFF7D1FEDDE90DB00C9944
:100DB0005D46002610B909F101000D18B9EB0500D8
:100DC00003D4C0F1FF3609F10105A5EB09002BE0C2
:100DD000B9F1010F01DA4FF001090020B9F1110F4B
:100DE0000090484601DD112300E003460AAA01A94C
:100DF0000CA8FFF7ABFEDDE90C704D4600268346DC
:100E0000207800070AD4AB4500DA5D4601A8012D21
:100E100004DD411911F8011C302907D04F4502DAD1
:100E200017F1040F04DA012082460FE06D1EEEE791
:100E3000002F02DCED1B3E4403E0781CA84200DDDD
:100E40007D1CB81B00F1010A4FF000472078000715
:100E500003D4AA4501DB4FF0FF3A0021B7F1004F60
:100E60000DF143088DF8431024D002202B23002FCE
:100E700001DA7F422D230A21021EA0F1010000DCCD
:100E80005FB197FBF1FC97FBF1F201FB1C7C17466D
:100E90000CF1300C08F801CDEEE7A8F10100037069
:100EA0002188090501D5452100E06521A0F101084F
:100EB00000F8011C09980FA9A1EB0807FF1D00B15C
:100EC0000120411901EBEA70A1693844081A401E5B
:100ED000A0612078C00602D42046FFF7E3FA099803
:100EE00028B1D4E901219047206A401C2062207873
:100EF000C00622D52046FFF7D5FA1EE0002E04DBFF
:100F0000B34502DD01A8805D00E03020D4E9012175
:100F10009047206A401C2062761CAAF101005FEA1B
:100F2000000A0AD100F0F8F9C0680168405CD4E911
:100F300001219047206A401C2062281EA5F101056E
:100F4000DCDC07E0D4E9012118F8010B9047206AA6
:100F5000401C2062381EA7F10107F3DC2046FFF792
:100F6000B7FA032011B041E62DE9F04F04460D46D3
:100F7000D21D22F0070089B0D0E9009748463946D3
:100F800005F098FC0246F80F01D02D2307E02068F9
:100F9000810701D52B2302E0202101EAC0038DF84F
:100FA00020300BB1012000E00020032A824601D04E
:100FB000072A04DB2946204600F0B2F93FE12078F9
:100FC000800601D40D2500E0E569C7F30A560D2D12
:100FD00049DA00214FEA175B08464FF00000002F66
:100FE00000F4400007DA00EB80004FF4400100EB12
:100FF000D07001EA60008115012901DD4FF0FF3159
:1010000000224FEA850CBCF1180F06D31346ACF151
:1010100018004FF08052C24003E04FF4801323FACF
:101020000CF30CF10C0CBCF1200F04D3ACF1200C30
:1010300009FA0CF001E007FA0CF000294FF0004823
:1010400001DD18B90FE00ED140450CD319EB0209B0
:101050005F4121B9404502D19F4329EA0209BBEB18
:10106000175F00D0761C2088000502D57B487844A5
:1010700002E07A487844193808AA302302F80A3086
:10108000037C0AF10101002E0AF1020A53546A4658
:1010900002DC4FF0300101E04FF031014FF0010868
:1010A0008DF8001002D0A6F2FF3603E059EA47019E
:1010B00000D06B4E002D02DC2178090704D54FF0DB
:1010C00002082E218DF80110C44600210BE0C7F361
:1010D00003433F01C35C491C6D1E02F8083005291B
:1010E00008F1010801DA002DF1DC00210CE000EB31
:1010F0001973491C1B786D1E082902F808304FEA45
:10110000091908F1010801DA002DF0DC21688B06CD
:1011100002D516E0A8F10108E04505DD02EB080361
:1011200013F8013C302BF5D0B8F1000F09DD02EBCC
:10113000080313F8013C2E2B03D1090701D4A8F1B1
:101140000108002D05DD3E2102F808106D1E08F192
:101150000108407C002E02F8080008F1010804DABA
:101160002D20764202F8080002E02B2002F8080049
:101170000A214FF47A70864208F101080BDB96FBD6
:10118000F0F3303302F8083096FBF0F308F1010871
:1011900000FB136601E0642E0CDB642096FBF0F389
:1011A000303302F8083096FBF0F308F1010800FB39
:1011B000136601E00A2E06DB96FBF1F0303002F8F0
:1011C000080008F1010896FBF1F001FB10603030D7
:1011D00002F80800A16908F1010808EB050202EB1A
:1011E0000A00081AA0612078C00602D42046FFF742
:1011F00059F9216A08AE01EB0A00206204E0D4E943
:10120000012116F8010B9047BAF1010AF7D22078B4
:10121000C00602D52046FFF745F96E4609E016F8EC
:10122000010B3E280FD0D4E901219047206A401CD1
:101230002062B8F10108F2D22046FFF749F909B05F
:101240000320BDE8F08F206A2844206203E0D4E93F
:101250000121302090476D1EEBD3F8E73963000081
:1012600002FCFFFF10B5436913B1AFF3008001E04A
:10127000FFF751F9012010BD127800F124010A7026
:1012800000224A700122EDE711684FF0FF32E9E7D2
:1012900010B5436913B1AFF3008001E0FFF7D2F955
:1012A000012010BD128800F1240182840022C28432
:1012B0000122EDE711684FF0FF32E9E72DE9F04137
:1012C00016460C46054600F01FF8036893F8010126
:1012D000012807D0FF2C12D8185D80B101202C7096
:1012E000BDE8F081D3F807013246214603F2071327
:1012F000C7182846BC46BDE8F041002360474FF0C0
:10130000FF30EDE77047000010B500F005F8001D54
:1013100010BD00BFE55E00000048704730000020AF
:101320002DE9F0411F46044603260168072A01F40F
:10133000006004DB08B116A505E016A503E008B1BE
:1013400015A500E015A521F010002060A069C01EC1
:10135000A0610FB1401EA0612046FFF7A3F84FB176
:10136000D4E9012138469047206A401C2062C01C05
:10137000206206E0206AFAE7D4E9012115F8010BA2
:101380009047761EF8D22046FFF7A2F8BDE8F0811C
:101390004E414E006E616E00494E4600696E660019
:1013A0002DE9F047814616468AB0354878440DC885
:1013B0008DE80D0032487844801C03AC0DC884E8E9
:1013C0000D0041F69B300844372190FBF1F290FB71
:1013D000F1F5A5F1800501FB12041B3C02D5644226
:1013E000012000E00020DFF898A080460027FA44A2
:1013F000AAF1BE0A0EE0E0070AD03246684607EBC3
:10140000470101230AEB810105F01DF98DE8070072
:1014100064107F1C002CEED1194F7F44AE3F19E0C1
:10142000E80715D007EB04100DF1180A90E80E003C
:101430008AE80E00C068F04201D19819089032463F
:10144000012306A903A805F0FEF803AB83E8070013
:101450006D10641C002DE3D14FF001033246694644
:10146000B8F1000F03A802D005F0D8F801E005F0AC
:10147000EAF8C9E90001C9F808200AB0BDE8F08718
:101480008C60000010B50446AFF300802046BDE834
:101490001040FEF72FBF000001491820ABBEFEE749
:1014A000260002000000000030B44FF0013C50F86C
:1014B000042B51F8043BCCFA52F4D51A20D1FCB9D4
:1014C00050F8042B51F8043BCCFA52F4D51A17D13A
:1014D000B4B950F8042B51F8043BCCFA52F4D51AA5
:1014E0000ED16CB950F8042B51F8043BCCFA52F4ED
:1014F000D51A05D1002CDAD030BC4FF0000070476F
:1015000029BAB1FA81F111F01801D1F1200084401B
:10151000F2D1CA40CB4012F0FF0213F0FF0330BCFF
:10152000D01A7047FFE7FEE77047000072B6FFE78A
:10153000FEE7000080B582B01F200DF102010622F7
:1015400004F0F0FC9DF802109DF8030040EA012031
:1015500000B200EE100AB8EEC00A40F2B810C2F2B3
:10156000000080ED000A9DF804109DF8050040EA97
:10157000012000B200EE100AB8EEC00A40F2BC1022
:10158000C2F2000080ED000A9DF806109DF80700E9
:1015900040EA012000B200EE100AB8EEC00A40F2A4
:1015A000C010C2F2000080ED000A02B080BD000051
:1015B00080B582B025200DF10201062204F0B2FCB4
:1015C0009DF802109DF8030040EA012000B200EEF1
:1015D000100AB8EEC00A40F2C410C2F2000080ED5A
:1015E000000A9DF804109DF8050040EA012000B2B1
:1015F00000EE100AB8EEC00A40F2C810C2F20000B5
:1016000080ED000A9DF806109DF8070040EA0120D1
:1016100000B200EE100AB8EEC00A40F2CC10C2F2DE
:10162000000080ED000A02B080BD000080B584B0EB
:10163000039002910192FFF77DFFFFF7B9FF40F29F
:10164000C410C2F2000090ED000A9FED941AB4EEAF
:10165000410AF1EE10FA57DAFFE740F2C410C2F285
:10166000000090ED000A9FED8E1AB4EE410AF1EEF3
:1016700010FA49DDFFE740F2C810C2F2000090ED19
:10168000000A9FED861AB4EE410AF1EE10FA3BDA39
:10169000FFE740F2C810C2F2000090ED000A9FED93
:1016A000801AB4EE410AF1EE10FA2DDDFFE740F2A8
:1016B000CC10C2F2000090ED000A9FED7A1AB4EE51
:1016C000410AF1EE10FA1FDAFFE740F2CC10C2F245
:1016D000000090ED000A9FED741AB4EE410AF1EE9D
:1016E00010FA11DDFFE740F2C411C2F20001002040
:1016F000086040F2C811C2F20001086040F2CC114B
:10170000C2F200010860FFE740F2C410C2F200001C
:1017100090ED000A40F28802C2F2000292ED001A37
:1017200030EE010A40F2A001C2F2000191ED011A6F
:1017300020EE010A40F29400C2F2000080ED000A9F
:1017400040F2C813C2F2000393ED000A92ED011AB1
:1017500030EE010A91ED011A20EE010A80ED010A36
:1017600040F2CC13C2F2000393ED000A92ED021A8C
:1017700030EE010A91ED011A20EE010A80ED020A15
:1017800040F2B810C2F2000090ED000A40F2700280
:10179000C2F2000292ED001A30EE010A91ED001A39
:1017A00020EE010A40F27C00C2F2000080ED000A47
:1017B00040F2BC13C2F2000393ED000A92ED011A4D
:1017C00030EE010A91ED001A20EE010A80ED010AC7
:1017D00040F2C013C2F2000393ED000A92ED021A28
:1017E00030EE010A91ED001A20EE010A80ED020AA6
:1017F00040F2CD00C2F200000078D0B9FFE740F21D
:10180000CD01C2F2000108780130087040F27C007E
:10181000C2F2000090ED000AD0ED010A90ED021A2C
:10182000DFED222AF0EE621AB0EE622A02F06AF9C7
:10183000FFE740F29400C2F2000090ED000AD0ED04
:10184000010A90ED021A40F27C00C2F20000D0EDD5
:10185000001A90ED012AD0ED022A9FED144AB0EE55
:10186000443AF0EE443A02F099FE02F0C1FD40F233
:10187000F810C2F2000000680399086040F2E4101A
:10188000C2F2000000680299086040F20420C2F22F
:10189000000000680199086004B080BD000070423B
:1018A000000070C20000C8420000C8C20000000072
:1018B00080B584B0039000F011FA02900398019073
:1018C0000198013048B1FFE740F20400C2F2000085
:1018D0000178019808440190FFE7FFE700F0FEF966
:1018E0000299401A0199884201D2FFE7F6E704B055
:1018F00080BD00008EB00D900C9100200A900990E0
:1019000008900B90FFE70B980F2800F2CC81FFE7BF
:101910000B99012088400A900C9800680A990840A9
:10192000099009980A99884240F0B881FFE70C981D
:10193000406800F00300012807D0FFE70C984068DA
:1019400000F0030002282FD1FFE70D98806808906F
:101950000B984100032000FA01F108988843089091
:101960000C98C0680B99490000FA01F108980843E7
:10197000089008980D9988600D98406808900B9918
:10198000012000FA01F10898884308900C984068FB
:10199000C0F300100B9900FA01F108980843089071
:1019A00008980D994860FFE70C98406800F0030024
:1019B000032818D0FFE70D98C06808900B984100E5
:1019C000032000FA01F10898884308900C98806879
:1019D0000B99490000FA01F108980843089008980B
:1019E0000D99C860FFE70C98406800F003000228DA
:1019F00026D1FFE70D980B996FF0030202EA51011F
:101A00000844006A08900B9800F0070081000F203E
:101A100000FA01F10898884308900C9800690B9926
:101A200001F00701890000FA01F1089808430890C5
:101A300008980D990B9B02EA530211440862FFE7D4
:101A40000D98006808900B984100032000FA01F1FE
:101A50000898884308900C98406800F003000B99A0
:101A6000490000FA01F108980843089008980D9978
:101A700008600C9880798007002800F00E81FFE74D
:101A8000FFE70020079043F64400C4F2020001681B
:101A900041F480410160006800F48040079007989D
:101AA000FFE70B9820F0030043F60801C4F20101A0
:101AB000405808900B9800F0030081000F2000FAB6
:101AC00001F10898884308900D980021C4F20201A2
:101AD000884203D1FFE7002006905EE00D9840F2B7
:101AE0000041C4F20201884203D1FFE701200590C2
:101AF00050E00D9840F60001C4F20201884203D183
:101B0000FFE70220049042E00D9840F60041C4F245
:101B10000201884203D1FFE70320039034E00D98CF
:101B200041F20001C4F20201884203D1FFE7042020
:101B3000029026E00D9841F20041C4F20201884271
:101B400003D1FFE70520019018E00D9841F6000150
:101B5000C4F20201884203D1FFE7062000900AE0A8
:101B60000D9941F60042C4F202020820914208BFDA
:101B700007200090FFE700980190FFE7019802908E
:101B8000FFE702980390FFE703980490FFE70498AB
:101B90000590FFE705980690FFE70698C0B20B99FD
:101BA00001F00301890000FA01F108980843089048
:101BB00008980B9921F0030143F60802C4F20102D0
:101BC000885043F60840C4F2010000680890099963
:101BD0000898884308900C988079C006002805D59D
:101BE000FFE70999089808430890FFE7089843F62B
:101BF0000841C4F20101086043F60C40C4F2010040
:101C00000068089009990898884308900C98807992
:101C10008006002805D5FFE7099908980843089031
:101C2000FFE7089843F60C41C4F20101086043F64F
:101C30000440C4F20100006808900999089888439C
:101C400008900C9880798007002805D5FFE709994E
:101C5000089808430890FFE7089843F60441C4F247
:101C60000101086043F60040C4F2010000680890DA
:101C700009990898884308900C988079C00728B182
:101C8000FFE70999089808430890FFE7089843F68A
:101C90000041C4F201010860FFE7FFE7FFE70B988E
:101CA00001300B902FE60EB07047000082B001901B
:101CB000ADF802108DF801209DF8010028B1FFE772
:101CC000BDF802000199886105E0BDF8020000043A
:101CD00001998861FFE702B07047000040F20020E0
:101CE000C2F200000068704740F20400C2F2000037
:101CF000027840F20021C2F2000108681044086036
:101D00007047000080B543F60041C4F20201086844
:101D100040F400700860086840F48060086008685B
:101D200040F480700860032000F08AF80F2000F073
:101D300005F800F03BF8002080BD000080B582B0BF
:101D4000009040F20000C2F20000006840F204017E
:101D5000C2F200010A784FF47A71B1FBF2F1B0FBE4
:101D6000F1F001F05FF820B1FFE701208DF80700E6
:101D700018E000980F280DD8FFE700994FF0FF30CA
:101D8000002200F043F8009840F20801C2F200017E
:101D9000086003E001208DF8070003E000208DF8C3
:101DA0000700FFE79DF8070002B080BD82B0FFE7A3
:101DB0000020019043F64400C4F20200016841F49F
:101DC00080410160006800F4804001900198FFE7C5
:101DD000FFE70020009043F64000C4F202000168D3
:101DE00041F080510160006800F080500090009840
:101DF000FFE702B07047000080B582B08DF80700A1
:101E00009DF9070003F078FD02B080BD80B586B073
:101E10008DF81700049103920020029003F084FDD6
:101E200002909DF91700019002980499039A02F01C
:101E300097FF0146019803F07FFD06B080BD0000CA
:101E400080B582B00190019803F098FD02B080BD8A
:101E500080B584B002900191029820B9FFE701207B
:101E60008DF80F0021E1019843F60041C4F2020110
:101E7000096801F00701884212D9FFE7019943F68A
:101E80000040C4F202000170006800F007000199F0
:101E9000884204D0FFE701208DF80F0005E1FFE73D
:101EA00002980078800700282AD5FFE7029800787A
:101EB0004007002809D5FFE743F60801C4F20201F4
:101EC000086840F4E0500860FFE7029800780007D7
:101ED000002809D5FFE743F60801C4F202010868AB
:101EE00040F460400860FFE743F60801C4F20201D5
:101EF000086820F0F000029A926810430860FFE73B
:101F000002980078C00700286ED0FFE7029840686A
:101F1000012811D1FFE743F60000C4F20200006877
:101F200000F400310020B0EB514F04D1FFE7012055
:101F30008DF80F00B9E02CE002984068022805D027
:101F4000FFE702984068032811D1FFE743F600003D
:101F5000C4F20200006800F000710020B0EB516F85
:101F600004D1FFE701208DF80F009EE010E043F65A
:101F70000000C4F20200006800F002010020B0EB93
:101F8000510F04D1FFE701208DF80F008DE0FFE72E
:101F9000FFE743F60801C4F20201086820F00300DD
:101FA000029A526810430860FFF798FE0090FFE71E
:101FB00043F60800C4F20200006800F00C00029929
:101FC0004968B0EB810F0ED0FFE7FFF787FE00995D
:101FD000401A41F28931884204D3FFE703208DF88B
:101FE0000F0062E0E4E7FFE7019843F60041C4F226
:101FF0000201096801F00701884212D2FFE7019946
:1020000043F60040C4F202000170006800F00700CF
:102010000199884204D0FFE701208DF80F0044E0C9
:10202000FFE702980078400700280CD5FFE743F649
:102030000801C4F20201086820F4E050029AD26854
:1020400010430860FFE702980078000700280DD5CC
:10205000FFE743F60801C4F20201086820F460407B
:10206000029A126940EAC2000860FFE700F04CF8EB
:1020700043F60801C4F202010968C9B20A0947F22D
:102080005441C0F60001895CC84040F20001C2F230
:102090000001086040F20800C2F200000068FFF78B
:1020A0004DFE00208DF80F00FFE79DF80F0004B0F3
:1020B00080BD000040F20000C2F2000000687047DE
:1020C00080B5FFF7F7FF43F60801C4F20201096883
:1020D000C1F3822247F26441C0F60001895CC84026
:1020E00080BD000080B5FFF7E5FF43F60801C4F2AC
:1020F0000201096889B24A0B47F26441C0F6000147
:10210000895CC84080BD000080B586B00020059085
:1021100004900390029043F60800C4F202000068A5
:1021200000F00C000146019140B1FFE7019804283E
:102130000AD0FFE7019808280CD04FE042F2004097
:10214000C0F2F40002904FE041F20020C0F27A00A9
:10215000029049E043F60400C4F20200016801F075
:102160003F01059100684002002813D5FFE743F6C0
:102170000400C4F202000068C0F3881041F200219C
:10218000C0F27A01A0FB0101059A0023FEF7CAF80C
:10219000049012E043F60400C4F202000068C0F3A9
:1021A000881042F20041C0F2F401A0FB0101059A3F
:1021B0000023FEF7B7F80490FFE743F60400C4F2EB
:1021C0000200006800F44031022000EBD13003909F
:1021D00004980399B0FBF1F0029005E042F2004050
:1021E000C0F2F4000290FFE7029806B080BD000044
:1021F00080B586B00490049820B9FFE701208DF8DF
:10220000170050E304980078C007002800F0A5806C
:10221000FFE743F60800C4F20200006800F00C007B
:10222000042813D0FFE743F60800C4F20200006858
:1022300000F00C0008281ED1FFE743F60400C4F2AA
:10224000020000684002002815D5FFE743F60000B1
:10225000C4F20200006800F400310020B0EB514FDE
:1022600008D0FFE70498406820B9FFE701208DF807
:10227000170018E370E0FFE704984068B0F5803F6E
:1022800009D1FFE743F60001C4F20201086840F4F7
:102290008030086020E004984068B0F5A02F0DD190
:1022A000FFE743F60001C4F20201086840F4802011
:1022B0000860086840F4803008600CE043F60001D4
:1022C000C4F20201086820F480300860086820F435
:1022D00080200860FFE7FFE7FFE704984068E8B167
:1022E000FFE7FFF7FBFC0390FFE743F60000C4F2B3
:1022F0000200006800F400310020B0EB514F0CD117
:10230000FFE7FFF7EBFC0399401A652804D3FFE7CA
:1023100003208DF81700C6E2E7E71CE0FFF7DEFCBC
:102320000390FFE743F60000C4F20200006800F4E7
:1023300000310020B0EB514F0CD0FFE7FFF7CEFC8F
:102340000399401A652804D3FFE703208DF817008E
:10235000A9E2E7E7FFE7FFE7FFE7049800788007D7
:10236000002840F19680FFE743F60800C4F202001F
:10237000006810F00C0F13D0FFE743F60800C4F21A
:102380000200006800F00C0008282CD1FFE743F69B
:102390000400C4F2020000684002002823D4FFE7D2
:1023A00043F60000C4F20200006800F002010020C1
:1023B000B0EB510F09D0FFE70498C068012804D0A2
:1023C000FFE701208DF817006DE243F60001C4F22B
:1023D0000201086820F0F800049A126940EAC2007D
:1023E0000860FFE754E00498C06870B3FFE700217D
:1023F000C4F2472101200860FFF770FC0390FFE75B
:1024000043F60000C4F20200006800F00201002060
:10241000B0EB510F0CD1FFE7FFF760FC0399401AB6
:10242000032804D3FFE703208DF817003BE2E7E71A
:1024300043F60001C4F20201086820F0F800049A93
:10244000126940EAC200086021E00021C4F247217D
:1024500000200860FFF742FC0390FFE743F600000E
:10246000C4F20200006800F002010020B0EB510F3E
:102470000CD0FFE7FFF732FC0399401A032804D37E
:10248000FFE703208DF817000DE2E7E7FFE7FFE71E
:10249000FFE704980078000700284BD5FFE7049871
:1024A000406918B3FFE740F68061C4F2472101207C
:1024B0000860FFF713FC0390FFE743F67400C4F2D3
:1024C0000200006800F002010020B0EB510F0CD1B7
:1024D000FFE7FFF703FC0399401A032804D3FFE743
:1024E00003208DF81700DEE1E7E722E040F6806187
:1024F000C4F2472100200860FFF7F0FB0390FFE7DC
:1025000043F67400C4F20200006800F002010020EB
:10251000B0EB510F0CD0FFE7FFF7E0FB0399401A37
:10252000032804D3FFE703208DF81700BBE1E7E79A
:10253000FFE7FFE7049800784007002840F1CE80CD
:10254000FFE700208DF8070043F64000C4F20200C8
:102550000068C000002815D4FFE7FFE700200090C6
:1025600043F64000C4F20200016841F0805101606E
:10257000006800F0805000900098FFE701208DF87F
:102580000700FFE747F20000C4F200000068C00542
:10259000002822D4FFE747F20001C4F200010868D6
:1025A00040F480700860FFF799FB0390FFE747F263
:1025B0000000C4F200000068C00500280CD4FFE74A
:1025C000FFF78CFB0399401A032804D3FFE703208D
:1025D0008DF8170067E1EAE7FFE7FFE704988068F6
:1025E000012809D1FFE743F67001C4F2020108682F
:1025F00040F0010008601FE00498806805280DD1B4
:10260000FFE743F67001C4F20201086840F00400DD
:102610000860086840F0010008600CE043F67001B3
:10262000C4F20201086820F001000860086820F088
:1026300004000860FFE7FFE7FFE704988068F8B14F
:10264000FFE7FFF74BFB0390FFE743F67000C4F290
:102650000200006800F002010020B0EB510F0ED123
:10266000FFE7FFF73BFB0399401A41F289318842AB
:1026700004D3FFE703208DF8170014E1E5E71EE01F
:10268000FFF72CFB0390FFE743F67000C4F2020053
:10269000006800F002010020B0EB510F0ED0FFE700
:1026A000FFF71CFB0399401A41F28931884204D399
:1026B000FFE703208DF81700F5E0E5E7FFE79DF859
:1026C0000700012809D1FFE743F64001C4F20201E7
:1026D000086820F080500860FFE7FFE704988069F1
:1026E000002800F0DC80FFE743F60800C4F2020097
:1026F000006800F00C00082800F08580FFE70498CF
:10270000806902285CD1FFE76021C4F247210020E4
:102710000860FFF7E3FA0390FFE743F60000C4F216
:102720000200006800F000710020B0EB516F0CD087
:10273000FFE7FFF7D3FA0399401A032804D3FFE712
:1027400003208DF81700AEE0E7E70499C869D1F8D7
:1027500020C04B6A8A6A40EA0C0040EA8310D20328
:102760004FF6FF739A43A2F580321043C96A40EADC
:10277000016043F60401C4F2020108606021C4F262
:10278000472101200860FFF7A9FA0390FFE743F60D
:102790000000C4F20200006800F000710020B0EBFD
:1027A000516F0CD1FFE7FFF799FA0399401A0328FC
:1027B00004D3FFE703208DF8170074E0E7E721E07A
:1027C0006021C4F2472100200860FFF787FA0390D8
:1027D000FFE743F60000C4F20200006800F0007159
:1027E0000020B0EB516F0CD0FFE7FFF777FA0399A9
:1027F000401A032804D3FFE703208DF8170052E0A6
:10280000E7E7FFE74AE004988069012804D1FFE781
:1028100001208DF8170046E043F60400C4F20200E0
:102820000068029004988069012831D0FFE702987F
:1028300000F480000499C969884229D1FFE7029811
:1028400000F03F000499096A884221D1FFE702980D
:1028500047F6C07108400499496AB0EB811F17D14F
:10286000FFE7029800F440300499896AC9034FF6E3
:10287000FF729143A1F58031884209D1FFE70298A8
:1028800000F070600499C96AB0EB016F04D0FFE7F3
:1028900001208DF8170006E0FFE7FFE7FFE70020C3
:1028A0008DF81700FFE79DF8170006B080BD000007
:1028B00080B584B00290029820B9FFE701208DF81E
:1028C0000F0072E00298406A60B9FFE70298406822
:1028D000B0F5827F01D1FFE703E002990020C861D3
:1028E000FFE705E002990020086102994861FFE7CF
:1028F000029900208862029890F8510040B9FFE7E1
:102900000299002081F85000029800F053F8FFE788
:102910000299022081F8510002980168086820F0AD
:1029200040000860029A019211685068D2F808C00D
:10293000D36800F482700CF4044C604403F4006328
:102940001844136903F002031844536903F00103A8
:102950001844936903F400731844D36903F03803EF
:102960001844136A03F080031843926A02F4005279
:1029700010430860029801688369426A042000EAF3
:10298000134002F010021044486002980168C869C0
:1029900020F40060C861029900204865029A012174
:1029A00082F851108DF80F00FFE79DF80F0004B07A
:1029B00080BD000080B58EB00D9000200C900B9073
:1029C0000A90099008900D98006843F60001C4F23F
:1029D000000188425FD1FFE7FFE70020079043F640
:1029E0004000C4F20200016841F4804101600068C7
:1029F00000F4804007900798FFE7FFE7002006906B
:102A000043F63000C4F20200016841F004010160A5
:102A1000006800F0040006900698FFE7FFE700203A
:102A2000059043F63000C4F20200016841F0020153
:102A30000160006800F0020005900598FFE70C2097
:102A40000890022000900990002001900A90032035
:102A500002900B90052003900C9040F60000C4F209
:102A6000020008A90491FEF745FFDDF800C0019BB4
:102A7000029A039804994FF4806ECDF820E0CDF8C7
:102A800024C00A930B920C9040F20040C4F2020062
:102A9000FEF730FFFFE70EB080BD000080B58EB0BE
:102AA000DDF840C00C900B910A92ADF82630012061
:102AB000059000208DF81300FFE70C9890F8500067
:102AC000012804D1FFE702208DF83700A6E10C9918
:102AD000012081F85000FFE7FFE7FFF7FFF80690BD
:102AE0000C9890F851008DF81F000C9840680890E1
:102AF000BDF82600ADF824009DF81F00012812D073
:102B0000FFE70898B0F5827F09D1FFE70C9880684D
:102B100028B9FFE79DF81F00042804D0FFE7022032
:102B20008DF813006FE10B9838B1FFE70A9820B1D8
:102B3000FFE7BDF8260020B9FFE701208DF813005C
:102B400061E10C9890F85100042805D0FFE70C993A
:102B5000052081F85100FFE70C99002048650A998B
:102B60000C9A9163BDF826100C9AD187BDF82610F7
:102B70000C9A91870B990C9A1163BDF826100C9A48
:102B8000D186BDF826100C9A91860C9908640C9990
:102B900048640C980068006800F04000402807D0A6
:102BA000FFE70C980168086840F040000860FFE704
:102BB0000C98C068B0F5006F7AD1FFE70C984068B8
:102BC00028B1FFE7BDF8240001280ED1FFE70C98DB
:102BD0000168006B0088C8600C99086B02300863BC
:102BE0000C99C88E0138C886FFE7FFE70C98C18EA4
:102BF0000120029039B9FFE70C98C08F002818BF58
:102C000001200290FFE70298C00700284FD0FFE79D
:102C10000C98006880688007002818D5FFE70C989A
:102C2000C08EA0B1FFE70598012810D1FFE70C98EE
:102C30000168006B0088C8600C99086B023008635B
:102C40000C99C88E0138C88600200590FFE70C98C3
:102C500000688068C007A8B1FFE70C98C08F88B1F2
:102C6000FFE70C980068C0680C99896B08800C9984
:102C7000886B023088630C99C88F0138C88701209F
:102C80000590FFE7FFF72AF80699401A1099884245
:102C90000CD3FFE71098013040B1FFE703208DF817
:102CA00013000C99012081F85100ACE09EE77CE014
:102CB0000C98406828B1FFE7BDF8240001280ED128
:102CC000FFE70C980168006B007808730C99086B9B
:102CD000013008630C99C88E0138C886FFE7FFE70A
:102CE0000C98C18E0120019039B9FFE70C98C08F74
:102CF000002818BF01200190FFE70198C0070028B5
:102D000052D0FFE70C98006880688007002818D52B
:102D1000FFE70C98C08EA0B1FFE70598012810D1FD
:102D2000FFE70C980168006B007808730C99086B3A
:102D3000013008630C99C88E0138C88600200590C0
:102D4000FFE70C9800688068C007A8B1FFE70C98FF
:102D5000C08F88B1FFE70C980068C0680C99896B38
:102D600008700C99886B013088630C99C88F013802
:102D7000C88701200590FFE7FEF7B0FF0699401ACB
:102D80001099884204D3FFE71098013018B9FFE783
:102D9000109840B9FFE703208DF813000C9901202B
:102DA00081F851002FE09BE7FFE70C981099069AF5
:102DB00002F0FAF938B1FFE701208DF813000C9901
:102DC000202048651FE00C98806870B9FFE7FFE796
:102DD000002003900C980068C06803900C9800686D
:102DE000806803900398FFE7FFE70C98406D20B1DF
:102DF000FFE701208DF8130004E00C99012081F811
:102E00005100FFE7FFE7FFE70C99002081F8500031
:102E1000FFE79DF813008DF83700FFE79DF83700B6
:102E20000EB080BD80B582B00190019802F0BAFA70
:102E300002B080BD81B0009001B0704781B00090B9
:102E400001B0704785B003900291FFE7039890F8B6
:102E50003C00012804D1FFE702208DF813007EE03A
:102E60000399012081F83C00FFE7FFE70399022066
:102E700081F83D000398006840680190039800685D
:102E800080680090019820F070000190029801681D
:102E900001980843019001980399096848600398D4
:102EA00000680021C4F2010188423CD0FFE703988A
:102EB0000068B0F1804F36D0FFE70398006840F219
:102EC0000041C4F2000188422DD0FFE7039800685A
:102ED00040F60001C4F20001884224D0FFE70398C5
:102EE000006840F60041C4F2000188421BD0FFE7B1
:102EF0000398006840F20041C4F20101884212D0F8
:102F0000FFE70398006844F20001C4F2010188421F
:102F100009D0FFE70398006841F60001C4F2000100
:102F200088420ED1FFE7009820F0800000900298C0
:102F300041680098084300900098039909688860E8
:102F4000FFE70399012081F83D00FFE70399002086
:102F500081F83C00FFE700208DF81300FFE79DF8A3
:102F6000130005B07047000080B582B00090009853
:102F700020B9FFE701208DF807003FE0009890F8A6
:102F80003D0040B9FFE70099002081F83C0000981F
:102F900000F038F8FFE70099022081F83D00009921
:102FA00051F8040B02F09CFA0099012081F84600C8
:102FB000FFE70099012081F83E00009981F83F0069
:102FC000009981F84000009981F84100FFE7FFE790
:102FD0000099012081F84200009981F8430000998E
:102FE00081F84400009981F84500FFE7009901202D
:102FF00081F83D0000208DF80700FFE79DF80700ED
:1030000002B080BD80B584B003900398006840F2A0
:103010000041C4F2000188421BD1FFE7FFE7002016
:10302000029043F64000C4F20200016841F0020140
:103030000160006800F0020002900298FFE71D2086
:10304000019000221146FEF7E1FE0198FEF7D4FE42
:10305000FFE704B080BD000083B00190019890F8B4
:103060003D00012804D0FFE701208DF80B006AE045
:103070000199022081F83D0001980168C86840F07C
:103080000100C860019800680021C4F20101884273
:103090003CD0FFE701980068B0F1804F36D0FFE7E1
:1030A0000198006840F20041C4F2000188422DD02E
:1030B000FFE70198006840F60001C4F20001884271
:1030C00024D0FFE70198006840F60041C4F20001F7
:1030D00088421BD0FFE70198006840F20041C4F22B
:1030E0000101884212D0FFE70198006844F2000114
:1030F000C4F20101884209D0FFE70198006841F657
:103100000001C4F20001884212D1FFE70198006873
:10311000806800F0070000900098062807D0FFE7BD
:1031200001980168086840F001000860FFE706E0C8
:1031300001980168086840F001000860FFE700207E
:103140008DF80B00FFE79DF80B0003B070470000FF
:1031500080B586B00490039100208DF80B00FFE746
:10316000049890F83C00012804D1FFE702208DF874
:103170001700ABE00499012081F83C00FFE7FFE76E
:103180000499022081F83D0004980068806801904D
:10319000019820F077000190019820F47F40019081
:1031A00001980499096888600398006800900028D5
:1031B00072D0FFE7009810286ED0FFE70098202813
:1031C0006AD0FFE70098302866D0FFE700984028D3
:1031D00055D0FFE70098502837D0FFE700986028C7
:1031E00040D0FFE7009870280BD0FFE70098B0F5BB
:1031F000805F05D0FFE70098B0F5005F16D052E081
:1032000055E004980068039B5A689968DB6802F0EF
:103210003FFA0498006880680190019840F07700B8
:103220000190019804990968886040E0049800685A
:10323000039B5A689968DB6802F02AFA04980168CF
:10324000886840F48040886031E004980068039A00
:103250005168D26802F04CFA04980068502102F0DC
:1032600031FA24E004980068039A5168D26802F0A9
:1032700067FA04980068602102F024FA17E00498C5
:103280000068039A5168D26802F032FA0498006824
:10329000402102F017FA0AE00498006803990968CF
:1032A00002F010FA03E001208DF80B00FFE704990B
:1032B000012081F83D00FFE70499002081F83C00DF
:1032C000FFE79DF80B008DF81700FFE79DF817004A
:1032D00006B080BD81B0009001B0704780B584B069
:1032E000039003980068C068029003980068006922
:1032F00001909DF804008007002824D5FFE79DF881
:103300000800800700281DD5FFE7039801686FF0CB
:10331000020008610399012008770398006880691A
:10332000800720B1FFE70398FFF7D4FF06E003987A
:1033300000F0E2F8039800F0E3F8FFE703990020BB
:103340000877FFE7FFE79DF804004007002825D530
:10335000FFE79DF80800400700281ED5FFE7039807
:1033600001686FF004000861039902200877039850
:103370000068806910F4407F04D0FFE70398FFF7EE
:10338000A9FF06E0039800F0B7F8039800F0B8F83A
:10339000FFE7039900200877FFE7FFE79DF80400A7
:1033A0000007002824D5FFE79DF808000007002843
:1033B0001DD5FFE7039801686FF0080008610399C5
:1033C0000420087703980068C069800720B1FFE7F0
:1033D0000398FFF77FFF06E0039800F08DF803984D
:1033E00000F08EF8FFE7039900200877FFE7FFE77A
:1033F0009DF80400C006002825D5FFE79DF80800C9
:10340000C00600281ED5FFE7039801686FF0100082
:10341000086103990820087703980068C06910F4D0
:10342000407F04D0FFE70398FFF754FF06E00398BE
:1034300000F062F8039800F063F8FFE703990020BA
:103440000877FFE7FFE79DF80400C00778B1FFE7C2
:103450009DF80800C00748B1FFE7039801686FF0C6
:1034600001000861039800F04FF8FFE7FFE79DF8BF
:1034700004000006002810D5FFE79DF808000006AC
:10348000002809D5FFE7039801686FF08000086104
:103490000398FFF7CFFCFFE7FFE79DF80400400625
:1034A000002810D5FFE79DF808004006002809D540
:1034B000FFE7039801686FF040000861039800F08F
:1034C00059F8FFE7FFE79DF804008006002810D5B3
:1034D000FFE79DF808008006002809D5FFE703985C
:1034E00001686FF0200008610398FFF7A7FCFFE771
:1034F000FFE704B080BD000081B0009001B07047CC
:1035000081B0009001B0704780B582B00190019801
:10351000006840F22811C2F200010968884227D1F0
:10352000FFE740F2B000C2F20000006844F62161FB
:10353000884207DBFFE740F2B001C2F20001002041
:103540000860FFE740F2B001C2F2000108680130F4
:10355000086040F2AC00C2F2000040F2A801C2F2E2
:10356000000140F2B402C2F20002FEF75FF8FFE78A
:1035700002B080BD81B0009001B0704780B582B0CC
:103580000090009820B9FFE701208DF8070040E087
:103590000098806908B1FFE700E0FFE7009890F825
:1035A000410040B9FFE70099002081F840000098F1
:1035B00000F034F8FFE70099242081F841000098DA
:1035C0000168C86820F40050C860009802F0E2F872
:1035D00000980168086920F490400861009801682B
:1035E000486920F02A00486100980168C86840F4E2
:1035F0000050C860009900204864009A202182F899
:103600004110009A82F84210009948638DF8070033
:10361000FFE79DF8070002B080BD000080B588B0CC
:103620000790002006900590049003900290079860
:10363000006844F20041C4F20001884233D1FFE740
:10364000FFE70020019043F64000C4F20200016849
:1036500041F400310160006800F4003001900198ED
:10366000FFE7FFE70020009043F63000C4F20200BD
:10367000016841F001010160006800F00100009064
:103680000098FFE70C200290022003900020049095
:1036900003200590072006900020C4F2020002A932
:1036A000FEF728F9FFE708B080BD0000FFE7FEE75E
:1036B00080B592B076200D900021119102F05CFC53
:1036C000112004900121059102F056FC1E2010905B
:1036D000FEF7EEF80D98119902F04EFC4F20019084
:1036E0000621039102F048FC03995020029002F059
:1036F00043FC4E200E900F210F9102F03DFC1098DC
:10370000FEF7D6F80D98119902F036FC019803994E
:1037100002F032FC0298039902F02EFC40F2A00164
:10372000C2F200014DF24E10C3F69C3008604AF21E
:103730005800C3F68B20486051200990562102F0B2
:103740001BFC049952200C9002F016FC53200A90A6
:103750000D21069102F010FC1199632002F00CFC7F
:103760006520082102F008FC1199662002F004FC93
:103770001199682002F000FC1199692002F0FCFB0D
:1037800005990D9802F0F8FB0B20A02102F0F4FB44
:103790000C21084602F0F0FB06989021079102F0F8
:1037A000EBFB0E208021089102F0E6FB0D98022130
:1037B00002F0E2FB0320182102F0DEFB079904204F
:1037C00002F0DAFB089905200B9002F0D5FB0D986A
:1037D000119902F0D1FB0998122102F0CDFB0A9851
:1037E0000B9902F0C9FB0C98332102F0C5FB0D9830
:1037F000119902F0C1FB0E980F9902F0BDFB1098D1
:10380000FEF756F8119812B080BD000080B582B066
:1038100001908DF8031000208DF802008DF8020051
:10382000FFE79DF802009DF80310884210DAFFE7D9
:103830000198007802F05CFB019908700198013052
:103840000190FFE79DF8020001308DF80200E8E7E3
:1038500002B080BD80B594B00020139012901190FA
:1038600010900F90FFE700200E9043F63000C4F256
:103870000200016841F080010160006800F08000F2
:103880000E900E98FFE7FFE700200D9043F6300002
:10389000C4F20200016841F004010160006800F018
:1038A00004000D900D98FFE7FFE700200C9043F611
:1038B0003000C4F20200016841F0010101600068BB
:1038C00000F001000C900C98FFE7FFE700200B9040
:1038D00043F63000C4F20200016841F002010160C9
:1038E000006800F002000B900B98FFE7FFE7002054
:1038F0000A9043F63000C4F20200016841F0100162
:103900000160006800F010000A900A98FFE7FFE7E6
:103910000020099043F63000C4F20200016841F033
:1039200008010160006800F0080009900998FFE7AD
:1039300040F20040C4F20200029040F6060100226C
:103940000492FEF7B3F9049A41F20000C4F20200B7
:1039500000904FF440710191FEF7A8F9049A40F6E7
:103960000040C4F2020006900C210891FEF79EF977
:103970000298049906220F9211220392109211913B
:103980000121059112910FA90791FDF7B3FF00984E
:10399000DDF80CC0049B059A0799DDF804E0CDF82A
:1039A0003CE0CDF840C011931292FDF7A3FF0298BE
:1039B000049A059B07994FF4006CCDF83CC0109316
:1039C000119203221292FDF795FFDDF80CC0049BC3
:1039D000059A06980799DDF820E0CDF83CE0CDF88F
:1039E00040C011931292FDF785FF14B080BD000016
:1039F00080B582B040F2D000C2F20000009043F6E1
:103A00000001C4F2000101604FF4827141600021A5
:103A100001918160C160016141614FF40072826176
:103A2000C1610162416281620A21C162FEF740FF09
:103A300018B1FFE7FDF77AFDFFE702B080BD000097
:103A400080B588B0002101910791069105910491FC
:103A50000391029140F22810C2F2000040F20042AD
:103A6000C4F200020260416081604FF6FF72C260E2
:103A700001618161FFF778FA18B1FFE7FDF756FDA4
:103A8000FFE74FF48050049040F22810C2F200008B
:103A900004A9FFF75DFB18B1FFE7FDF747FDFFE75E
:103AA00000200290039040F22810C2F2000002A908
:103AB000FFF7C8F918B1FFE7FDF738FDFFE708B0D9
:103AC00080BD000080B582B040F27010C2F20000EC
:103AD000019044F20041C4F2000101604FF4E13171
:103AE000416000218160C16001610C2242618161FD
:103AF000C161FFF743FD18B1FFE7FDF717FDFFE7D1
:103B000002B080BD80B59CB08DED1B0ACDED1A0AC8
:103B10008DED191ACDED181A8DED172ACDED162A57
:103B20009DED1B0A9DED1A1A21EE011A20EE000AE6
:103B300030EE011A9DED190A20EE000A30EE010A5E
:103B400002F04EFA8DED150A9DED151A9DED1B0A3A
:103B500020EE010A8DED1B0A9DED151A9DED1A0A46
:103B600020EE010A8DED1A0A9DED151A9DED190A38
:103B700020EE010A8DED190A9DED180AB5EE400AF6
:103B8000F1EE10FA3DD0FFE79DED170AB5EE400AC1
:103B9000F1EE10FA35D0FFE79DED160AB5EE400ABA
:103BA000F1EE10FA2DD0FFE79DED180A9DED171AE2
:103BB00021EE011A20EE000A30EE011A9DED160AE0
:103BC00020EE000A30EE010A02F00AFA8DED150A25
:103BD0009DED151A9DED180A20EE010A8DED180ACB
:103BE0009DED151A9DED170A20EE010A8DED170ABD
:103BF0009DED151A9DED160A20EE010A8DED160AAF
:103C0000FFE79DED1B0AB1EE400ADDED190A02F057
:103C100013FF8DED130A9DED1A0ADDED190A02F06E
:103C20000BFF8DED120A9DED120A03F003F98DEDE5
:103C30000B0A9DED120A03F055F88DED0A0A9DED71
:103C4000130A03F04FF88DED080A9DED130A03F0F7
:103C5000F1F88DED090A9DED180AB5EE400AF1EE76
:103C600010FA49D0FFE79DED170AB5EE400AF1EED4
:103C700010FA41D0FFE79DED160AB5EE400AF1EECD
:103C800010FA39D0FFE79DED180A9DED083A9DED39
:103C9000171A9DED092A21EE021A9DED0B4A21EE1D
:103CA000041A20EE030A30EE011A9DED160A20EEEA
:103CB000020A9DED0A2A20EE020A30EE010A8DED7D
:103CC000070A9DED170A9DED0A2A9DED161A9DED36
:103CD0000B3A21EE031A20EE020A30EE410A8DED76
:103CE000060A9DED060AB1EE400ADDED070A02F074
:103CF000A3FE8DED140A02E000201490FFE79DED75
:103D0000120AB6EE001A8DED011A20EE010A02F039
:103D1000E9FF9DED011A8DED110A9DED130A20EECC
:103D2000010A02F0DFFF9DED011A8DED100A9DEDF5
:103D3000140A20EE010A02F0D5FF9DED011A8DED67
:103D40000F0A9DED120A20EE010A03F073F89DEDB3
:103D5000011A8DED0E0A9DED130A20EE010A03F003
:103D600069F89DED011A8DED0D0A9DED140A20EE06
:103D7000010A03F05FF88DED0C0A9DED110A9DED2F
:103D8000101A20EE010A9DED0F2A9DED0E1A9DEDF1
:103D90000D3A21EE031A9DED0C3A21EE031A20EEA6
:103DA000020A30EE010A40F2E813C2F20003029365
:103DB00083ED000A9DED0E0A9DED101A20EE010A1A
:103DC0009DED0F2A9DED111A9DED0D3A21EE031A7E
:103DD0009DED0C3A21EE031A20EE020A30EE410A64
:103DE00040F2EC12C2F20002039282ED000A9DED55
:103DF000110A9DED0D1A20EE010A9DED0F2A9DED91
:103E00000E1A9DED103A21EE031A9DED0C3A21EEAB
:103E1000031A20EE020A30EE010A40F2F011C2F25B
:103E20000001049181ED000A9DED110A9DED101A2B
:103E300020EE010A9DED0C2A9DED0E1A9DED0D3A26
:103E400021EE031A9DED0F3A21EE031A20EE020A2D
:103E500030EE410A40F2F410C2F20000059080ED0D
:103E6000000A93ED000A92ED001A21EE011A20EEED
:103E7000000A30EE011A91ED000A20EE000A30EE41
:103E8000011A90ED000A20EE000A30EE010A00F05F
:103E900049FB029B039A049905988DED150A9DED47
:103EA000151A93ED000A20EE010A83ED000A9DED3C
:103EB000151A92ED000A20EE010A82ED000A9DED2E
:103EC000151A91ED000A20EE010A81ED000A9DED20
:103ED000151A90ED000A20EE010A80ED000A1CB0D0
:103EE00080BD000080B594B08DED130ACDED120AAF
:103EF0008DED111ACDED101A8DED0F2ACDED0E2A94
:103F00009DED100AB5EE400AF1EE10FA11D1FFE76F
:103F10009DED0F0AB5EE400AF1EE10FA09D1FFE768
:103F20009DED0E0AB5EE400AF1EE10FA00F0308178
:103F3000FFE79DED100A9DED0F1A21EE011A20EE0C
:103F4000000A30EE011A9DED0E0A20EE000A30EE56
:103F5000010A02F045F88DED0D0A9DED0D1A9DED5B
:103F6000100A20EE010A8DED100A9DED0D1A9DED4F
:103F70000F0A20EE010A8DED0F0A9DED0D1A9DED41
:103F80000E0A20EE010A8DED0E0A40F2EC13C2F289
:103F9000000393ED000A40F2F410C2F2000090ED2D
:103FA000002A40F2E811C2F2000191ED001A40F23D
:103FB000F012C2F2000292ED003A21EE031A20EE56
:103FC000020A30EE410A8DED0C0A91ED000A93EDE4
:103FD000002A92ED001A90ED003A21EE031A20EE2D
:103FE000020A30EE010A8DED0B0A91ED000A20EE77
:103FF000000ABEEE001A30EE011A90ED000A20EE23
:10400000000A30EE010A8DED0A0A9DED0F0A9DEDC2
:104010000A2A9DED0E1A9DED0B3A21EE031A20EEB1
:10402000020A30EE410A8DED090A9DED0E0A9DED62
:104030000C2A9DED101A9DED0A3A21EE031A20EE8E
:10404000020A30EE410A8DED080A9DED100A9DED41
:104050000B2A9DED0F1A9DED0C3A21EE031A20EE6E
:10406000020A30EE410A8DED070A40F2FC10C2F25E
:10407000000090ED000AB5EE400AF1EE10FA5DDDA9
:10408000FFE740F2FC13C2F2000393ED000A9DED3E
:10409000091A20EE010A40F2DC10C2F2000090ED95
:1040A000002A40F2D012C2F2000292ED001A20EE75
:1040B000020A30EE010A82ED000A93ED000A9DED3E
:1040C000081A20EE010A90ED002A40F2D411C2F243
:1040D000000191ED001A20EE020A30EE010A81ED96
:1040E000000A93ED000A9DED071A20EE010A90EDFB
:1040F000002A40F2D810C2F2000090ED001A20EE23
:10410000020A30EE010A80ED000A92ED001A9DEDE0
:10411000130A30EE010A8DED130A91ED001A9DEDA0
:10412000120A30EE010A8DED120A90ED001A9DED93
:10413000110A30EE010A8DED110A10E040F2D011A3
:10414000C2F200010020086040F2D411C2F2000166
:10415000086040F2D811C2F200010860FFE79DED4F
:10416000090A9DED131A30EE010A8DED130A9DED3B
:10417000080A9DED121A30EE010A8DED120A9DED2E
:10418000070A9DED111A30EE010A8DED110AFFE7C5
:1041900040F2DC10C2F2000090ED000AB6EE001A08
:1041A00020EE012A9DED130A20EE020A8DED130A7E
:1041B00090ED000A20EE012A9DED120A20EE020A7F
:1041C0008DED120A90ED000A20EE011A9DED110A04
:1041D00020EE010A8DED110A40F2E813C2F200034D
:1041E00000931868069040F2EC12C2F200020192AD
:1041F0001068059040F2F011C2F2000102910868C7
:1042000004909DED050A9DED132A9DED041A9DED88
:10421000123A21EE031A20EE420A30EE410A40F231
:10422000F410C2F20000039090ED001A9DED112AE7
:1042300021EE021A30EE411A93ED000A30EE010A27
:1042400083ED000A9DED060A9DED132A9DED041AEB
:104250009DED113A21EE031A20EE020A30EE010A1A
:1042600090ED001A9DED122A21EE021A30EE411A4D
:1042700092ED000A30EE010A82ED000A9DED060A79
:104280009DED122A9DED051A9DED113A21EE031ABE
:1042900020EE020A30EE411A90ED000A9DED132A3D
:1042A00020EE020A30EE011A91ED000A30EE010A0A
:1042B00081ED000A9DED060A9DED112A9DED051A7E
:1042C0009DED123A21EE031A20EE020A30EE010AA9
:1042D0009DED041A9DED132A21EE021A30EE411ACB
:1042E00090ED000A30EE010A80ED000A93ED000A1D
:1042F00092ED001A21EE011A20EE000A30EE011AAA
:1043000091ED000A20EE000A30EE011A90ED000A4D
:1043100020EE000A30EE010A01F062FE009B019AD5
:10432000029903988DED0D0A9DED0D1A93ED000A8B
:1043300020EE010A83ED000A9DED0D1A92ED000AB0
:1043400020EE010A82ED000A9DED0D1A91ED000AA2
:1043500020EE010A81ED000A9DED0D1A90ED000A94
:1043600020EE010A80ED000A14B080BD81B08DED11
:10437000000A40F2FC11C2F200010020086040F285
:10438000E812C2F200024FF07E51116040F2EC11CF
:10439000C2F20001086040F2F011C2F200010860B0
:1043A00040F2F411C2F20001086040F2D011C2F2F2
:1043B0000001086040F2D411C2F20001086040F22E
:1043C000D811C2F20001086040F2B801C2F2000147
:1043D00008709DED001AB7EE000A80EE010A40F267
:1043E000DC10C2F2000080ED000A01B0704700004E
:1043F00080B588B040F2E810C2F20000039090ED62
:10440000000A40F2EC10C2F20000019090ED001A98
:1044100040F2F010C2F20000029090ED002A40F24B
:10442000F410C2F20000049090ED003A22EE033A3C
:1044300020EE010A30EE030A21EE013AB6EE001A30
:104440008DED051A31EE431A22EE022A71EE420A70
:1044500040F2F810C2F20000009001F0ADFADDF871
:1044600000C0019B0399049A02989CED000A9FEDFD
:104470002C1A8DED061A20EE010A8CED000A93ED40
:10448000001A92ED002A91ED000A90ED003A20EE1C
:10449000030A21EE021A30EE410A30EE000A02F061
:1044A00035FA019B029A039904989DED051A9DED3A
:1044B000062A20EE020A40F2E41CC2F2000C8CED47
:1044C000000A93ED000A92ED003A91ED004A90ED5A
:1044D000002A24EE024A20EE030A30EE040A23EEFC
:1044E000033A31EE431A22EE022A71EE420A40F2FA
:1044F0000420C2F20000079001F05EFA9DED061A5A
:10450000079890ED000A20EE010A80ED000A40F2C3
:10451000B801C2F200010120087008B080BD00BFE0
:10452000E12E654284B08DED030A9DED030AB6EEDF
:10453000001A20EE010A8DED020A039801900198FD
:104540000090009945F6DF10C5F63770A0EB6100CA
:104550000090009801909DED010A9DED021A21EE58
:10456000001A21EE002AB7EE081A31EE422A20EE98
:10457000020A8DED010A9DED010A9DED022A22EE4F
:10458000002A22EE002A31EE421A20EE010A8DEDB9
:10459000010A9DED010A04B07047000080B5AAB081
:1045A0008DED290ACDED280A8DED271ACDED261ABD
:1045B0008DED252ACDED242A8DED233ACDED223A3D
:1045C0008DED214A9DED230AB5EE400AF1EE10FA79
:1045D0001FD1FFE79DED220AB5EE400AF1EE10FA79
:1045E00017D1FFE79DED210AB5EE400AF1EE10FA72
:1045F0000FD1FFE79DED290ADDED280A9DED271A71
:10460000DDED261A9DED252ADDED242AFFF76AFC53
:10461000A0E39DED260AB5EE400AF1EE10FA11D1A5
:10462000FFE79DED250AB5EE400AF1EE10FA09D13B
:10463000FFE79DED240AB5EE400AF1EE10FA00F016
:104640009682FFE79DED260A9DED251A21EE011ABF
:1046500020EE000A30EE011A9DED240A20EE000A39
:1046600030EE010A01F0BCFC8DED200A9DED201A10
:104670009DED260A20EE010A8DED260A9DED201AF9
:104680009DED250A20EE010A8DED250A9DED201AEB
:104690009DED240A20EE010A8DED240A9DED230AEA
:1046A0009DED221A21EE011A20EE000A30EE011AC9
:1046B0009DED210A20EE000A30EE010A01F090FC87
:1046C0008DED200A9DED201A9DED230A20EE010AB2
:1046D0008DED230A9DED201A9DED220A20EE010AA0
:1046E0008DED220A9DED201A9DED210A20EE010A92
:1046F0008DED210A40F2E810C2F2000090ED000AB0
:1047000020EE000A8DED1F0A90ED000A40F2EC1237
:10471000C2F2000292ED001A20EE010A8DED1E0A8F
:1047200090ED000A40F2F011C2F2000191ED001A82
:1047300020EE010A8DED1D0A90ED000A40F2F41002
:10474000C2F2000090ED001A20EE010A8DED1C0A65
:1047500092ED000A20EE000A8DED1B0A92ED000A90
:1047600091ED001A20EE010A8DED1A0A92ED000A71
:1047700090ED001A20EE010A8DED190A91ED000A64
:1047800020EE000A8DED180A91ED000A90ED001A56
:1047900020EE010A8DED170A90ED000A20EE000AC6
:1047A0008DED160A9DED230A9DED181AB6EE003A1E
:1047B0008DED053A33EE411A9DED162A31EE422A6F
:1047C0009DED221A9DED1A4A9DED1C5A34EE454A84
:1047D00021EE041A20EE020A30EE011A9DED210AA4
:1047E0009DED192A9DED1D4A32EE042A20EE020AA3
:1047F00030EE010A30EE000A8DED150A9DED230A18
:104800009DED1A1A9DED1C2A31EE022A9DED221A09
:104810009DED1B4A33EE443A9DED164A33EE443A81
:1048200021EE031A20EE020A30EE011A9DED210A54
:104830009DED172A9DED1E3A32EE432A20EE020A24
:1048400030EE010A30EE000A8DED140A9DED150AD6
:104850009DED141A21EE011A20EE000A30EE010A35
:1048600002F0B0FB9DED053A8DED130A9DED230A94
:104870009DED191A9DED1D2A31EE422A9DED221A59
:104880009DED174A9DED1E5A34EE054A21EE041A9D
:1048900020EE020A30EE011A9DED210A9DED1B2A41
:1048A00033EE422A9DED184A32EE442A20EE020AE7
:1048B00030EE010A30EE000A8DED120A9DED190A64
:1048C0009DED1D1A30EE410A8DED110A9DED1E0A77
:1048D0009DED171A30EE010A8DED100A9DED1F0AAD
:1048E00030EE430A9DED161A30EE010A8DED0F0AE7
:1048F0009DED130A9DED181A33EE411A9DED162A0F
:1049000031EE422A9DED121A9DED194A9DED1D5A78
:1049100034EE454A21EE041A20EE020A30EE010A76
:104920008DED0E0A9DED130A9DED1A1A9DED1C2AC0
:1049300031EE422A9DED121A9DED1E4A9DED175A49
:1049400034EE054A21EE041A20EE020A30EE010A86
:104950008DED0D0A9DED130A9DED1D1A9DED192A91
:1049600031EE022A9DED121A9DED1B4A33EE443AB8
:104970009DED184A33EE443A21EE031A20EE020A66
:1049800030EE010A8DED0C0A9DED250A9DED0F2AF2
:104990009DED241A9DED103A21EE031A20EE020A35
:1049A00030EE411A9DED220A9DED0C3A9DED212A33
:1049B0009DED0D4A22EE042A20EE030A30EE420A53
:1049C00030EE010A8DED0B0A9DED240A9DED112AB2
:1049D0009DED261A9DED0F3A21EE031A20EE020AF4
:1049E00030EE411A9DED210A9DED0E3A9DED232AF0
:1049F0009DED0C4A22EE042A20EE030A30EE420A14
:104A000030EE010A8DED0A0A9DED260A9DED102A71
:104A10009DED251A9DED113A21EE031A20EE020AB2
:104A200030EE411A9DED230A9DED0D3A9DED222AAF
:104A30009DED0E4A22EE042A20EE030A30EE420AD1
:104A400030EE010A8DED090A40F2FC10C2F20000BE
:104A500090ED000AB5EE400AF1EE10FA5DDDFFE7D9
:104A600040F2FC13C2F2000393ED000A9DED0B1A15
:104A700020EE010A40F2DC10C2F2000090ED002AA4
:104A800040F2D012C2F2000292ED001A20EE020AA9
:104A900030EE010A82ED000A93ED000A9DED0A1A3C
:104AA00020EE010A90ED002A40F2D411C2F200017A
:104AB00091ED001A20EE020A30EE010A81ED000AA3
:104AC00093ED000A9DED091A20EE010A90ED002AEF
:104AD00040F2D810C2F2000090ED001A20EE020A57
:104AE00030EE010A80ED000A92ED001A9DED290AD0
:104AF00030EE010A8DED290A91ED001A9DED280A8C
:104B000030EE010A8DED280A90ED001A9DED270A7E
:104B100030EE010A8DED270A10E040F2D011C2F20A
:104B200000010020086040F2D411C2F200010860C8
:104B300040F2D811C2F200010860FFE79DED0B0AB8
:104B40009DED291A30EE010A8DED290A9DED0A0A24
:104B50009DED281A30EE010A8DED280A9DED090A17
:104B60009DED271A30EE010A8DED270AFFE740F28E
:104B7000DC10C2F2000090ED000AB6EE001A20EE42
:104B8000012A9DED290A20EE020A8DED290A90EDF9
:104B9000000A20EE012A9DED280A20EE020A8DED82
:104BA000280A90ED000A20EE011A9DED270A20EE5A
:104BB000010A8DED270A40F2E813C2F200030193C7
:104BC0001868089040F2EC12C2F2000202921068DB
:104BD000079040F2F011C2F20001039108680690BC
:104BE0009DED070A9DED292A9DED061A9DED283AB7
:104BF00021EE031A20EE420A30EE410A40F2F41090
:104C0000C2F20000049090ED001A9DED272A21EEDB
:104C1000021A30EE411A93ED000A30EE010A83EDDC
:104C2000000A9DED080A9DED292A9DED061A9DEDCD
:104C3000273A21EE031A20EE020A30EE010A90ED27
:104C4000001A9DED282A21EE021A30EE411A92ED4B
:104C5000000A30EE010A82ED000A9DED080A9DED82
:104C6000282A9DED071A9DED273A21EE031A20EE22
:104C7000020A30EE411A90ED000A9DED292A20EE3D
:104C8000020A30EE011A91ED000A30EE010A81EDC0
:104C9000000A9DED080A9DED272A9DED071A9DED5E
:104CA000283A21EE031A20EE020A30EE010A9DEDA9
:104CB000061A9DED292A21EE021A30EE411A90EDD6
:104CC000000A30EE010A80ED000A93ED000A92ED31
:104CD000001A21EE011A20EE000A30EE011A91EDC1
:104CE000000A20EE000A30EE011A90ED000A20EED4
:104CF000000A30EE010A01F073F9019B029A039950
:104D000004988DED200A9DED201A93ED000A20EE07
:104D1000010A83ED000A9DED201A92ED000A20EEB3
:104D2000010A82ED000A9DED201A91ED000A20EEA5
:104D3000010A81ED000A9DED201A90ED000A20EE97
:104D4000010A80ED000A40F2B801C2F20001002021
:104D50000870FFE72AB080BDFFE7FEE7FFE7FEE748
:104D600088B0079006910592079800F0070004901C
:104D70000498C0F10700052803D3FFE70420019041
:104D800004E00498C0F107000190FFE70198039048
:104D900004980430062803D8FFE70020009003E0C1
:104DA000049803380090FFE7009802900698039952
:104DB000012202FA01F101390840029B984005994D
:104DC0009A40013A1140084308B0704780B582B05C
:104DD00000208DF80600FFE79DF80600072820DC7C
:104DE000FFE79DF806000021009100F0DDF8009833
:104DF0008DF80700FFE79DF807007F280ADCFFE732
:104E0000002000F0BBF9FFE79DF8070001308DF8A6
:104E10000700F0E7FFE79DF8060001308DF8060077
:104E2000DAE702B080BD000080B582B001200190B9
:104E300000F068F9019800F079F902B080BD000037
:104E400080B582B08DF8070000208DF80600FFE7DE
:104E50009DF80600072816DCFFE79DF807009DF87F
:104E600006208021D140084000F060F9012000F0C8
:104E700049F9002000F046F9FFE79DF806000130EF
:104E80008DF80600E4E7012000F03CF9002000F076
:104E900039F902B080BD000080B582B001200090D9
:104EA00000F044F9009800F02DF90020019000F086
:104EB0003DF9019800F026F902B080BD80B582B0BE
:104EC000002000F033F90120019000F01BF9019857
:104ED00000F02CF902B080BD80B582B000200190B6
:104EE000FFE70198C0087C2812D8FFE70020009057
:104EF000FFE70098C0087C2805D8FFE7FFE7009887
:104F000001300090F5E7FFE7019801300190E8E7F4
:104F1000FFF78AFFAE2000F01DF9D52000F01AF946
:104F2000802000F017F9A82000F014F93F2000F0CD
:104F300011F9D32000F00EF9002000F00BF9402009
:104F400000F008F9A12000F005F9C82000F002F9EE
:104F5000DA2000F0FFF8122000F0FCF8812000F0C9
:104F6000F9F8CF2000F0F6F8D92000F0F3F8F1209E
:104F700000F0F0F8DB2000F0EDF8302000F0EAF867
:104F8000A42000F0E7F8A62000F0E4F88D2000F05F
:104F9000E1F8142000F0DEF8AF2000F0DBF8FFF7B6
:104FA00015FF02B080BD000080B582B08DF807000B
:104FB0008DF806109DF8070040F0B00000F0CAF828
:104FC0009DF806000009103000F0C4F89DF80600B6
:104FD00000F00F0000F0BEF802B080BD80B582B0D6
:104FE0008DF807008DF806108DF805209DF8071044
:104FF0006FF0010000EB41009DF806206FF0070103
:1050000001EBC201C0B2C9B2FFF7CEFF00208DF89C
:105010000400FFE79DF80400072819DCFFE79DF86E
:10502000051047F26C40C0F6000000EB01109DF83F
:10503000041008444FF60061CFF6FF71405C00F0A9
:105040009DF8FFE79DF8040001308DF80400E1E7CA
:105050009DF807104FF0FF3000EB41009DF806204F
:105060006FF0070101EBC201C0B2C9B2FFF79CFFAC
:1050700000208DF80400FFE79DF80400072819DCE4
:10508000FFE79DF8051047F26C40C0F6000000EB0A
:1050900001109DF8041008444FF60861CFF6FF7127
:1050A000405C00F06BF8FFE79DF8040001308DF8DC
:1050B0000400E1E702B080BD80B584B08DF80F0038
:1050C0008DF80E10029200208DF80700FFE702987D
:1050D0009DF80710405C98B1FFE79DF80F009DF820
:1050E0000E109DF807301944029AD25CC9B2FFF73E
:1050F00075FFFFE79DF8070001308DF80700E6E730
:1051000004B080BD80B582B08DF807009DF80720FF
:1051100041F20000C4F202004FF48071FCF7C6FDBA
:10512000012000F0D1FE02B080BD000080B582B049
:105130008DF807009DF8072041F20000C4F202003C
:105140004FF40071FCF7B2FD012000F0BDFE02B08B
:1051500080BD000080B582B08DF80700FFF79CFE8F
:105160007820FFF76DFE0020FFF76AFE9DF807002C
:10517000FFF766FEFFF7A2FE02B080BD80B582B0E9
:105180008DF80700FFF788FE7820FFF759FE4020D2
:10519000FFF756FE9DF80700FFF752FEFFF78EFE61
:1051A00002B080BD7047000080B586B004900391C6
:1051B00002920498039B02996A461160022101221F
:1051C00000F058F848B1FFE70499486D40F020001E
:1051D000486503208DF8170048E040F20000C2F255
:1051E000000000684AF6AB21CAF6AA21A0FB011014
:1051F00000094FF2A171C1F2C601A0FB0110000C21
:105200004FF47A714843019004984068B0F5827F6A
:1052100015D1FFE70498039B02996A46116080212B
:10522000002200F027F848B1FFE70499486D40F0EC
:105230002000486503208DF8170017E012E0FFE713
:10524000019808B9FFE70CE0019801380190FFE7E9
:10525000049800688068C1B20020B0EBD11FEFD184
:10526000FFE7FFE700208DF81700FFE79DF8170024
:1052700006B080BD80B58AB0DDF830C008900791D7
:105280008DF81B20059305980190FCF727FD024639
:1052900001980C99891A08440390FCF71FFD0290AD
:1052A000039840F20001C2F200010968C1F3CB315A
:1052B00048430490FFE70898006880680799084011
:1052C000401AB0FA80F040099DF81B1088425ED069
:1052D000FFE705980130002858D0FFE7FCF7FEFCF7
:1052E0000299401A0399884204D2FFE703980028E4
:1052F00042D1FFE708980168486820F0E000486064
:1053000008984068B0F5827F13D1FFE7089880685D
:10531000B0F5004F06D0FFE708988068B0F5806FC1
:1053200007D1FFE708980168086820F0400008608E
:10533000FFE70898806AB0F5005F0FD1FFE7FFE74D
:1053400008980168086820F400500860089801680F
:10535000086840F400500860FFE7FFE70899012063
:1053600081F85100FFE70899002081F85000FFE71D
:1053700003208DF827000EE0049818B9FFE70020FD
:105380000390FFE7049801380490FFE793E70020BB
:105390008DF82700FFE79DF827000AB080BD0000C8
:1053A0007047000080B582B0009000980138B0F1DD
:1053B000807F03D3FFE70120019019E000980138B6
:1053C0004EF21401CEF2000108604FF0FF300F21C1
:1053D00000F0B2FA4EF21801CEF20001002008608F
:1053E0004EF21002CEF20002072111600190FFE799
:1053F000019802B080BD000080B5FCF775FC80BD4F
:1054000080B594B008A83021FBF71AF80020079067
:105410000690059004900390FFE70020029043F669
:105420004000C4F20200016841F080510160006850
:1054300000F0805002900298FFE7FFE70020019003
:1054400047F20000C4F20000016841F480410160AD
:10545000006800F4804001900198FFE70120089067
:105460004FF48030099002210E914FF480000F908C
:1054700004201090A82211921291139008A8FCF712
:10548000B7FE18B1FFE7FCF751F8FFE70F200390D4
:1054900002200490002005904FF4A05006904FF495
:1054A0008050079003A80521FCF7D2FC18B1FFE754
:1054B000FCF73CF8FFE714B080BD00004EF68851C1
:1054C000CEF20001086840F47000086070470000E8
:1054D00080B540F22810C2F20000FDF7FFFE80BD4B
:1054E00083B0029001910298006800900298002118
:1054F000C4F20101884225D0FFE70298B0F1804F45
:1055000020D0FFE7029840F20041C4F20001884237
:1055100018D0FFE7029840F60001C4F2000188426B
:1055200010D0FFE7029840F60041C4F20001884223
:1055300008D0FFE7029840F20041C4F2010188421E
:105540000AD1FFE7009820F07000009001984168B0
:10555000009808430090FFE702980021C4F201017F
:10556000884255D0FFE70298B0F1804F50D0FFE756
:10557000029840F20041C4F20001884248D0FFE79F
:10558000029840F60001C4F20001884240D0FFE7D3
:10559000029840F60041C4F20001884238D0FFE78B
:1055A000029840F20041C4F20101884230D0FFE786
:1055B000029844F20001C4F20101884228D0FFE7BA
:1055C000029844F20041C4F20101884220D0FFE772
:1055D000029844F60001C4F20101884218D0FFE7A6
:1055E000029841F60001C4F20001884210D0FFE7A2
:1055F000029841F60041C4F20001884208D0FFE75A
:10560000029842F20001C4F2000188420AD1FFE789
:10561000009820F4407000900198C16800980843F9
:105620000090FFE7009820F0800001994969084345
:105630000090009802990860019880680299C862F9
:10564000019800680299886202980021C4F2010161
:10565000884208D0FFE7029840F20041C4F20101FD
:10566000884205D1FFE70198006902990863FFE7C6
:1056700002990120486102980069C00730B1FFE734
:105680000299086920F001000861FFE703B0704744
:1056900085B0049003910292019304988068009071
:1056A000009820F47F40009003980299019A41EA03
:1056B00002210143009808430090009804998860F3
:1056C00005B0704783B00290019102988068009005
:1056D000009820F07000009001980099084340F075
:1056E0000700009000980299886003B0704700009E
:1056F00085B00490039102920498006A0090049986
:10570000086A20F0010008620498806901900198FD
:1057100020F0F00001900299019840EA01100190F8
:10572000009820F00A000090039900980843009028
:1057300001980499886100980499086205B070473F
:1057400085B00490039102920498006A0090049935
:10575000086A20F01000086204988069019001989E
:1057600020F4704001900299019840EA01300190C4
:10577000009820F0A00000900399009840EA0110E2
:10578000009001980499886100980499086205B016
:105790007047000080B586B00590059800680069E4
:1057A00020F44050059A1168D268104308610599A9
:1057B00088680B694A69C969184310430843049013
:1057C00005980068C06849F20C6188430499084351
:1057D00005990968C86005980068406920F4407020
:1057E000059A11689269104348610598006841F272
:1057F0000001C4F20101884209D0FFE70598006862
:1058000041F20041C4F20101884204D1FFE7FCF7F4
:1058100069FC039003E0FCF753FC0390FFE7059855
:10582000C069B0F5004F29D1FFE703981921A0FB0B
:105830000101059A1368029353685A00DB0FFAF7C7
:1058400071FD0299864648F21F53C5F2EB13AEFB79
:105850000320420910014FF0640C02FB1CEC3222C1
:1058600002EBCC02A2FB0332F82303EA521300EB53
:105870004300C2F342121044886026E003981921C5
:10588000A0FB0101059A1368019353689A009B0FCE
:10589000FAF748FD0199844648F21F52C5F2EB120F
:1058A000ACFB02304309642003FB10CC322000EB38
:1058B0000C10A0FB0202F02000EA521000EB0310D3
:1058C000C2F3431210448860FFE706B080BD0000B9
:1058D000FFE7FEE782B041EC100B8DED000B019865
:1058E000C00F02B07047000081B000EE100A0090B7
:1058F0000098C00F01B0704781B08DF803009DF98A
:10590000030000280ED4FFE79DF9031001F01F02E9
:10591000012090404A094EF20011CEF2000141F8F8
:105920002200FFE701B070474EF60C50CEF20000A7
:105930000068C0F30220704782B08DF80700009124
:105940009DF9070000280AD4FFE7009800019DF99F
:1059500007104EF20042CEF2000288540BE000988D
:1059600000019DF8071001F00F014EF61452CEF21F
:1059700000028854FFE702B07047000083B0029035
:10598000029800F0070000904EF60C51CEF2000194
:105990000868019001984FF6FF02104001900198AD
:1059A000009A40EA02200022C0F2FA52104301900D
:1059B0000198086003B0704780B5A0B08DED030A70
:1059C000CDED020A01909DED020AB5EE400AF1EE1E
:1059D00010FA40F3A280FFE79DED030A9DED021A45
:1059E00080EE010A8DED0D0A00200C900B909DEDCC
:1059F0000D0AB5EE400AF1EE10FA09DAFFE70120D0
:105A00000C909DED0D0AB1EE400A8DED0D0AFFE7F9
:105A10009DED0D0AB7EE001AB4EE410AF1EE10FA50
:105A200039DDFFE79DED0D1AB7EE000A80EE010AA1
:105A30008DED0D0A0D98109049F2A520CBF604507B
:105A40000F9001200E900E90FFE70E98092819DCA8
:105A5000FFE79DED100A9DED0F2A0E98C0F1090198
:105A600047F65C20C0F6000000EB810090ED001AC4
:105A700020EE020A30EE010A8DED0F0A0E98013079
:105A80000E90E2E79DED0F1A9FEDD90A30EE410A24
:105A90008DED0B0A30E00D98139049F2A520CBF65E
:105AA00004501290012011901190FFE711980928DD
:105AB00019DCFFE79DED130A9DED122A1198C0F144
:105AC000090147F65C20C0F6000000EB810090ED74
:105AD000001A20EE020A30EE010A8DED120A11982A
